{
  "contractName": "Marketplace",
  "abi": [
    {
      "inputs": [
        {
          "internalType": "string",
          "name": "_name",
          "type": "string"
        },
        {
          "internalType": "string",
          "name": "_symbol",
          "type": "string"
        }
      ],
      "payable": false,
      "stateMutability": "nonpayable",
      "type": "constructor"
    },
    {
      "anonymous": false,
      "inputs": [
        {
          "indexed": true,
          "internalType": "address",
          "name": "owner",
          "type": "address"
        },
        {
          "indexed": true,
          "internalType": "address",
          "name": "approved",
          "type": "address"
        },
        {
          "indexed": true,
          "internalType": "uint256",
          "name": "tokenId",
          "type": "uint256"
        }
      ],
      "name": "Approval",
      "type": "event"
    },
    {
      "anonymous": false,
      "inputs": [
        {
          "indexed": true,
          "internalType": "address",
          "name": "owner",
          "type": "address"
        },
        {
          "indexed": true,
          "internalType": "address",
          "name": "operator",
          "type": "address"
        },
        {
          "indexed": false,
          "internalType": "bool",
          "name": "approved",
          "type": "bool"
        }
      ],
      "name": "ApprovalForAll",
      "type": "event"
    },
    {
      "anonymous": false,
      "inputs": [
        {
          "indexed": false,
          "internalType": "address",
          "name": "owner",
          "type": "address"
        },
        {
          "indexed": false,
          "internalType": "uint256",
          "name": "id",
          "type": "uint256"
        }
      ],
      "name": "Mint",
      "type": "event"
    },
    {
      "anonymous": false,
      "inputs": [
        {
          "indexed": false,
          "internalType": "uint256",
          "name": "id",
          "type": "uint256"
        },
        {
          "indexed": false,
          "internalType": "string",
          "name": "name",
          "type": "string"
        },
        {
          "indexed": false,
          "internalType": "uint256",
          "name": "price",
          "type": "uint256"
        },
        {
          "indexed": false,
          "internalType": "address",
          "name": "owner",
          "type": "address"
        },
        {
          "indexed": false,
          "internalType": "bool",
          "name": "purchased",
          "type": "bool"
        },
        {
          "indexed": false,
          "internalType": "address",
          "name": "buyer",
          "type": "address"
        },
        {
          "indexed": false,
          "internalType": "bool",
          "name": "approvedFromOwnerToBuyer",
          "type": "bool"
        },
        {
          "indexed": false,
          "internalType": "bool",
          "name": "sended",
          "type": "bool"
        },
        {
          "indexed": false,
          "internalType": "address",
          "name": "approver",
          "type": "address"
        }
      ],
      "name": "ProductCreated",
      "type": "event"
    },
    {
      "anonymous": false,
      "inputs": [
        {
          "indexed": false,
          "internalType": "uint256",
          "name": "id",
          "type": "uint256"
        },
        {
          "indexed": false,
          "internalType": "string",
          "name": "name",
          "type": "string"
        },
        {
          "indexed": false,
          "internalType": "uint256",
          "name": "price",
          "type": "uint256"
        },
        {
          "indexed": false,
          "internalType": "address payable",
          "name": "owner",
          "type": "address"
        },
        {
          "indexed": false,
          "internalType": "bool",
          "name": "purchased",
          "type": "bool"
        },
        {
          "indexed": false,
          "internalType": "address",
          "name": "buyer",
          "type": "address"
        },
        {
          "indexed": false,
          "internalType": "bool",
          "name": "approvedFromOwnerToBuyer",
          "type": "bool"
        },
        {
          "indexed": false,
          "internalType": "bool",
          "name": "sended",
          "type": "bool"
        },
        {
          "indexed": false,
          "internalType": "address",
          "name": "approver",
          "type": "address"
        }
      ],
      "name": "ProductPurchased",
      "type": "event"
    },
    {
      "anonymous": false,
      "inputs": [
        {
          "indexed": true,
          "internalType": "address",
          "name": "from",
          "type": "address"
        },
        {
          "indexed": true,
          "internalType": "address",
          "name": "to",
          "type": "address"
        },
        {
          "indexed": true,
          "internalType": "uint256",
          "name": "tokenId",
          "type": "uint256"
        }
      ],
      "name": "Transfer",
      "type": "event"
    },
    {
      "constant": true,
      "inputs": [
        {
          "internalType": "address",
          "name": "owner",
          "type": "address"
        }
      ],
      "name": "balanceOf",
      "outputs": [
        {
          "internalType": "uint256",
          "name": "",
          "type": "uint256"
        }
      ],
      "payable": false,
      "stateMutability": "view",
      "type": "function"
    },
    {
      "constant": true,
      "inputs": [],
      "name": "baseURI",
      "outputs": [
        {
          "internalType": "string",
          "name": "",
          "type": "string"
        }
      ],
      "payable": false,
      "stateMutability": "view",
      "type": "function"
    },
    {
      "constant": true,
      "inputs": [
        {
          "internalType": "uint256",
          "name": "tokenId",
          "type": "uint256"
        }
      ],
      "name": "getApproved",
      "outputs": [
        {
          "internalType": "address",
          "name": "",
          "type": "address"
        }
      ],
      "payable": false,
      "stateMutability": "view",
      "type": "function"
    },
    {
      "constant": true,
      "inputs": [
        {
          "internalType": "address",
          "name": "owner",
          "type": "address"
        },
        {
          "internalType": "address",
          "name": "operator",
          "type": "address"
        }
      ],
      "name": "isApprovedForAll",
      "outputs": [
        {
          "internalType": "bool",
          "name": "",
          "type": "bool"
        }
      ],
      "payable": false,
      "stateMutability": "view",
      "type": "function"
    },
    {
      "constant": true,
      "inputs": [],
      "name": "name",
      "outputs": [
        {
          "internalType": "string",
          "name": "",
          "type": "string"
        }
      ],
      "payable": false,
      "stateMutability": "view",
      "type": "function"
    },
    {
      "constant": true,
      "inputs": [
        {
          "internalType": "uint256",
          "name": "tokenId",
          "type": "uint256"
        }
      ],
      "name": "ownerOf",
      "outputs": [
        {
          "internalType": "address",
          "name": "",
          "type": "address"
        }
      ],
      "payable": false,
      "stateMutability": "view",
      "type": "function"
    },
    {
      "constant": true,
      "inputs": [],
      "name": "productCount",
      "outputs": [
        {
          "internalType": "uint256",
          "name": "",
          "type": "uint256"
        }
      ],
      "payable": false,
      "stateMutability": "view",
      "type": "function"
    },
    {
      "constant": true,
      "inputs": [
        {
          "internalType": "uint256",
          "name": "",
          "type": "uint256"
        }
      ],
      "name": "products",
      "outputs": [
        {
          "internalType": "uint256",
          "name": "id",
          "type": "uint256"
        },
        {
          "internalType": "string",
          "name": "name",
          "type": "string"
        },
        {
          "internalType": "uint256",
          "name": "price",
          "type": "uint256"
        },
        {
          "internalType": "address payable",
          "name": "owner",
          "type": "address"
        },
        {
          "internalType": "bool",
          "name": "purchased",
          "type": "bool"
        },
        {
          "internalType": "address",
          "name": "buyer",
          "type": "address"
        },
        {
          "internalType": "bool",
          "name": "approvedFromOwnerToBuyer",
          "type": "bool"
        },
        {
          "internalType": "bool",
          "name": "sended",
          "type": "bool"
        },
        {
          "internalType": "address",
          "name": "approver",
          "type": "address"
        }
      ],
      "payable": false,
      "stateMutability": "view",
      "type": "function"
    },
    {
      "constant": false,
      "inputs": [
        {
          "internalType": "address",
          "name": "from",
          "type": "address"
        },
        {
          "internalType": "address",
          "name": "to",
          "type": "address"
        },
        {
          "internalType": "uint256",
          "name": "tokenId",
          "type": "uint256"
        }
      ],
      "name": "safeTransferFrom",
      "outputs": [],
      "payable": false,
      "stateMutability": "nonpayable",
      "type": "function"
    },
    {
      "constant": false,
      "inputs": [
        {
          "internalType": "address",
          "name": "from",
          "type": "address"
        },
        {
          "internalType": "address",
          "name": "to",
          "type": "address"
        },
        {
          "internalType": "uint256",
          "name": "tokenId",
          "type": "uint256"
        },
        {
          "internalType": "bytes",
          "name": "_data",
          "type": "bytes"
        }
      ],
      "name": "safeTransferFrom",
      "outputs": [],
      "payable": false,
      "stateMutability": "nonpayable",
      "type": "function"
    },
    {
      "constant": false,
      "inputs": [
        {
          "internalType": "address",
          "name": "to",
          "type": "address"
        },
        {
          "internalType": "bool",
          "name": "approved",
          "type": "bool"
        }
      ],
      "name": "setApprovalForAll",
      "outputs": [],
      "payable": false,
      "stateMutability": "nonpayable",
      "type": "function"
    },
    {
      "constant": true,
      "inputs": [
        {
          "internalType": "bytes4",
          "name": "interfaceId",
          "type": "bytes4"
        }
      ],
      "name": "supportsInterface",
      "outputs": [
        {
          "internalType": "bool",
          "name": "",
          "type": "bool"
        }
      ],
      "payable": false,
      "stateMutability": "view",
      "type": "function"
    },
    {
      "constant": true,
      "inputs": [],
      "name": "symbol",
      "outputs": [
        {
          "internalType": "string",
          "name": "",
          "type": "string"
        }
      ],
      "payable": false,
      "stateMutability": "view",
      "type": "function"
    },
    {
      "constant": true,
      "inputs": [
        {
          "internalType": "uint256",
          "name": "index",
          "type": "uint256"
        }
      ],
      "name": "tokenByIndex",
      "outputs": [
        {
          "internalType": "uint256",
          "name": "",
          "type": "uint256"
        }
      ],
      "payable": false,
      "stateMutability": "view",
      "type": "function"
    },
    {
      "constant": true,
      "inputs": [
        {
          "internalType": "address",
          "name": "owner",
          "type": "address"
        },
        {
          "internalType": "uint256",
          "name": "index",
          "type": "uint256"
        }
      ],
      "name": "tokenOfOwnerByIndex",
      "outputs": [
        {
          "internalType": "uint256",
          "name": "",
          "type": "uint256"
        }
      ],
      "payable": false,
      "stateMutability": "view",
      "type": "function"
    },
    {
      "constant": true,
      "inputs": [
        {
          "internalType": "uint256",
          "name": "tokenId",
          "type": "uint256"
        }
      ],
      "name": "tokenURI",
      "outputs": [
        {
          "internalType": "string",
          "name": "",
          "type": "string"
        }
      ],
      "payable": false,
      "stateMutability": "view",
      "type": "function"
    },
    {
      "constant": true,
      "inputs": [],
      "name": "totalSupply",
      "outputs": [
        {
          "internalType": "uint256",
          "name": "",
          "type": "uint256"
        }
      ],
      "payable": false,
      "stateMutability": "view",
      "type": "function"
    },
    {
      "constant": false,
      "inputs": [
        {
          "internalType": "address",
          "name": "from",
          "type": "address"
        },
        {
          "internalType": "address",
          "name": "to",
          "type": "address"
        },
        {
          "internalType": "uint256",
          "name": "tokenId",
          "type": "uint256"
        }
      ],
      "name": "transferFrom",
      "outputs": [],
      "payable": false,
      "stateMutability": "nonpayable",
      "type": "function"
    },
    {
      "constant": false,
      "inputs": [
        {
          "internalType": "string",
          "name": "_name",
          "type": "string"
        },
        {
          "internalType": "uint256",
          "name": "_price",
          "type": "uint256"
        },
        {
          "internalType": "address",
          "name": "_approver",
          "type": "address"
        }
      ],
      "name": "createProduct",
      "outputs": [],
      "payable": false,
      "stateMutability": "nonpayable",
      "type": "function"
    },
    {
      "constant": false,
      "inputs": [
        {
          "internalType": "uint256",
          "name": "_id",
          "type": "uint256"
        }
      ],
      "name": "purchaseProduct",
      "outputs": [],
      "payable": false,
      "stateMutability": "nonpayable",
      "type": "function"
    },
    {
      "constant": false,
      "inputs": [
        {
          "internalType": "address",
          "name": "_to",
          "type": "address"
        },
        {
          "internalType": "uint256",
          "name": "_id",
          "type": "uint256"
        }
      ],
      "name": "approve",
      "outputs": [],
      "payable": false,
      "stateMutability": "nonpayable",
      "type": "function"
    },
    {
      "constant": false,
      "inputs": [
        {
          "internalType": "uint256",
          "name": "_id",
          "type": "uint256"
        }
      ],
      "name": "sendMoney",
      "outputs": [],
      "payable": true,
      "stateMutability": "payable",
      "type": "function"
    }
  ],
  "bytecode": "0x60806040526000600e553480156200001657600080fd5b506040516200454a3803806200454a83398181016040526200003c919081019062000347565b81818181620000586301ffc9a760e01b6200016460201b60201c565b620000706380ac58cd60e01b6200016460201b60201c565b6200008863780e9d6360e01b6200016460201b60201c565b8160099080519060200190620000a09291906200023c565b5080600a9080519060200190620000b99291906200023c565b50620000d2635b5e139f60e01b6200016460201b60201c565b505050506040518060400160405280600581526020017f6369746573000000000000000000000000000000000000000000000000000000815250600d9080519060200190620001239291906200023c565b506040518060400160405280600581526020017f434954455300000000000000000000000000000000000000000000000000000081525090505050620004c0565b63ffffffff60e01b817bffffffffffffffffffffffffffffffffffffffffffffffffffffffff19161415620001d0576040517f08c379a0000000000000000000000000000000000000000000000000000000008152600401620001c790620003fc565b60405180910390fd5b6001600080837bffffffffffffffffffffffffffffffffffffffffffffffffffffffff19167bffffffffffffffffffffffffffffffffffffffffffffffffffffffff1916815260200190815260200160002060006101000a81548160ff02191690831515021790555050565b828054600181600116156101000203166002900490600052602060002090601f016020900481019282601f106200027f57805160ff1916838001178555620002b0565b82800160010185558215620002b0579182015b82811115620002af57825182559160200191906001019062000292565b5b509050620002bf9190620002c3565b5090565b620002e891905b80821115620002e4576000816000905550600101620002ca565b5090565b90565b600082601f830112620002fd57600080fd5b8151620003146200030e826200044c565b6200041e565b915080825260208301602083018583830111156200033157600080fd5b6200033e8382846200048a565b50505092915050565b600080604083850312156200035b57600080fd5b600083015167ffffffffffffffff8111156200037657600080fd5b6200038485828601620002eb565b925050602083015167ffffffffffffffff811115620003a257600080fd5b620003b085828601620002eb565b9150509250929050565b6000620003c9601c8362000479565b91507f4552433136353a20696e76616c696420696e74657266616365206964000000006000830152602082019050919050565b600060208201905081810360008301526200041781620003ba565b9050919050565b6000604051905081810181811067ffffffffffffffff821117156200044257600080fd5b8060405250919050565b600067ffffffffffffffff8211156200046457600080fd5b601f19601f8301169050602081019050919050565b600082825260208201905092915050565b60005b83811015620004aa5780820151818401526020810190506200048d565b83811115620004ba576000848401525b50505050565b61407a80620004d06000396000f3fe6080604052600436106101355760003560e01c80636ab31839116100ab57806395d89b411161006f57806395d89b4114610457578063a22cb46514610482578063b88d4fde146104ab578063c87b56dd146104d4578063e0f6ef8714610511578063e985e9c51461053c57610135565b80636ab31839146103655780636c0360eb1461038157806370a08231146103ac5780637acc0b20146103e95780638dc518871461042e57610135565b806323b872dd116100fd57806323b872dd146102335780632f745c591461025c57806338e76a031461029957806342842e0e146102c25780634f6ccce7146102eb5780636352211e1461032857610135565b806301ffc9a71461013a57806306fdde0314610177578063081812fc146101a2578063095ea7b3146101df57806318160ddd14610208575b600080fd5b34801561014657600080fd5b50610161600480360361015c919081019061300b565b610579565b60405161016e919061394f565b60405180910390f35b34801561018357600080fd5b5061018c6105e0565b604051610199919061396a565b60405180910390f35b3480156101ae57600080fd5b506101c960048036036101c491908101906130c4565b61067e565b6040516101d691906138bf565b60405180910390f35b3480156101eb57600080fd5b5061020660048036036102019190810190612fcf565b610703565b005b34801561021457600080fd5b5061021d610b53565b60405161022a9190613b6e565b60405180910390f35b34801561023f57600080fd5b5061025a60048036036102559190810190612ec9565b610b60565b005b34801561026857600080fd5b50610283600480360361027e9190810190612fcf565b610bc0565b6040516102909190613b6e565b60405180910390f35b3480156102a557600080fd5b506102c060048036036102bb91908101906130c4565b610c69565b005b3480156102ce57600080fd5b506102e960048036036102e49190810190612ec9565b611000565b005b3480156102f757600080fd5b50610312600480360361030d91908101906130c4565b611020565b60405161031f9190613b6e565b60405180910390f35b34801561033457600080fd5b5061034f600480360361034a91908101906130c4565b61108a565b60405161035c91906138bf565b60405180910390f35b61037f600480360361037a91908101906130c4565b61113c565b005b34801561038d57600080fd5b5061039661157c565b6040516103a3919061398c565b60405180910390f35b3480156103b857600080fd5b506103d360048036036103ce9190810190612e64565b61161e565b6040516103e09190613b6e565b60405180910390f35b3480156103f557600080fd5b50610410600480360361040b91908101906130c4565b6116dd565b60405161042599989796959493929190613c1d565b60405180910390f35b34801561043a57600080fd5b506104556004803603610450919081019061305d565b61184a565b005b34801561046357600080fd5b5061046c611b1a565b604051610479919061398c565b60405180910390f35b34801561048e57600080fd5b506104a960048036036104a49190810190612f93565b611bbc565b005b3480156104b757600080fd5b506104d260048036036104cd9190810190612f18565b611d3d565b005b3480156104e057600080fd5b506104fb60048036036104f691908101906130c4565b611d9f565b604051610508919061398c565b60405180910390f35b34801561051d57600080fd5b50610526611ee7565b6040516105339190613b6e565b60405180910390f35b34801561054857600080fd5b50610563600480360361055e9190810190612e8d565b611eed565b604051610570919061394f565b60405180910390f35b6000806000837bffffffffffffffffffffffffffffffffffffffffffffffffffffffff19167bffffffffffffffffffffffffffffffffffffffffffffffffffffffff1916815260200190815260200160002060009054906101000a900460ff169050919050565b600d8054600181600116156101000203166002900480601f0160208091040260200160405190810160405280929190818152602001828054600181600116156101000203166002900480156106765780601f1061064b57610100808354040283529160200191610676565b820191906000526020600020905b81548152906001019060200180831161065957829003601f168201915b505050505081565b600061068982611f81565b6106c8576040517f08c379a00000000000000000000000000000000000000000000000000000000081526004016106bf90613ace565b60405180910390fd5b6002600083815260200190815260200160002060009054906101000a900473ffffffffffffffffffffffffffffffffffffffff169050919050565b6000600f6000838152602001908152602001600020905060008160030160009054906101000a900473ffffffffffffffffffffffffffffffffffffffff1690503373ffffffffffffffffffffffffffffffffffffffff168260050160009054906101000a900473ffffffffffffffffffffffffffffffffffffffff1673ffffffffffffffffffffffffffffffffffffffff161461079f57600080fd5b8160030160149054906101000a900460ff166107ba57600080fd5b836010600085815260200190815260200160002060006101000a81548173ffffffffffffffffffffffffffffffffffffffff021916908373ffffffffffffffffffffffffffffffffffffffff160217905550828473ffffffffffffffffffffffffffffffffffffffff168273ffffffffffffffffffffffffffffffffffffffff167f8c5be1e5ebec7d5bd14f71427d1e84f3dd0314c0f7b2291e5b200ac8c7c3b92560405160405180910390a460018260040160146101000a81548160ff0219169083151502179055508160050160009054906101000a90505081600f600085815260200190815260200160002060008201548160000155600182018160010190805460018160011615610100020316600290046108d9929190612bfb565b50600282015481600201556003820160009054906101000a900473ffffffffffffffffffffffffffffffffffffffff168160030160006101000a81548173ffffffffffffffffffffffffffffffffffffffff021916908373ffffffffffffffffffffffffffffffffffffffff1602179055506003820160149054906101000a900460ff168160030160146101000a81548160ff0219169083151502179055506004820160009054906101000a900473ffffffffffffffffffffffffffffffffffffffff168160040160006101000a81548173ffffffffffffffffffffffffffffffffffffffff021916908373ffffffffffffffffffffffffffffffffffffffff1602179055506004820160149054906101000a900460ff168160040160146101000a81548160ff0219169083151502179055506004820160159054906101000a900460ff168160040160156101000a81548160ff0219169083151502179055506005820160009054906101000a900473ffffffffffffffffffffffffffffffffffffffff168160050160006101000a81548173ffffffffffffffffffffffffffffffffffffffff021916908373ffffffffffffffffffffffffffffffffffffffff1602179055509050507f872817ff91c09cd83cb429fc2bea2b3f81cfe65c713fb0dbe54e5f73ed92eacc600e54836001018460020154846001601060008a815260200190815260200160002060009054906101000a900473ffffffffffffffffffffffffffffffffffffffff16600160008a60050160009054906101000a900473ffffffffffffffffffffffffffffffffffffffff16604051610b4599989796959493929190613d45565b60405180910390a150505050565b6000600780549050905090565b610b71610b6b611ff3565b82611ffb565b610bb0576040517f08c379a0000000000000000000000000000000000000000000000000000000008152600401610ba790613b2e565b60405180910390fd5b610bbb8383836120d9565b505050565b6000610bcb8361161e565b8210610c0c576040517f08c379a0000000000000000000000000000000000000000000000000000000008152600401610c03906139ae565b60405180910390fd5b600560008473ffffffffffffffffffffffffffffffffffffffff1673ffffffffffffffffffffffffffffffffffffffff1681526020019081526020016000208281548110610c5657fe5b9060005260206000200154905092915050565b6000600f6000838152602001908152602001600020905060008160030160009054906101000a900473ffffffffffffffffffffffffffffffffffffffff1690503373ffffffffffffffffffffffffffffffffffffffff168260030160009054906101000a900473ffffffffffffffffffffffffffffffffffffffff1673ffffffffffffffffffffffffffffffffffffffff161415610d0657600080fd5b338260040160006101000a81548173ffffffffffffffffffffffffffffffffffffffff021916908373ffffffffffffffffffffffffffffffffffffffff16021790555060018260030160146101000a81548160ff0219169083151502179055508160050160009054906101000a90505081600f60008581526020019081526020016000206000820154816000015560018201816001019080546001816001161561010002031660029004610dbb929190612bfb565b50600282015481600201556003820160009054906101000a900473ffffffffffffffffffffffffffffffffffffffff168160030160006101000a81548173ffffffffffffffffffffffffffffffffffffffff021916908373ffffffffffffffffffffffffffffffffffffffff1602179055506003820160149054906101000a900460ff168160030160146101000a81548160ff0219169083151502179055506004820160009054906101000a900473ffffffffffffffffffffffffffffffffffffffff168160040160006101000a81548173ffffffffffffffffffffffffffffffffffffffff021916908373ffffffffffffffffffffffffffffffffffffffff1602179055506004820160149054906101000a900460ff168160040160146101000a81548160ff0219169083151502179055506004820160159054906101000a900460ff168160040160156101000a81548160ff0219169083151502179055506005820160009054906101000a900473ffffffffffffffffffffffffffffffffffffffff168160050160006101000a81548173ffffffffffffffffffffffffffffffffffffffff021916908373ffffffffffffffffffffffffffffffffffffffff1602179055509050507f6baa9157ebbc4bfef030fa128c97e2d064153d7facf015fd055ffc9ca01230be600e54836001018460020154846001336000808a60050160009054906101000a900473ffffffffffffffffffffffffffffffffffffffff16604051610ff399989796959493929190613cb1565b60405180910390a1505050565b61101b83838360405180602001604052806000815250611d3d565b505050565b600061102a610b53565b821061106b576040517f08c379a000000000000000000000000000000000000000000000000000000000815260040161106290613b4e565b60405180910390fd5b6007828154811061107857fe5b90600052602060002001549050919050565b6000806001600084815260200190815260200160002060009054906101000a900473ffffffffffffffffffffffffffffffffffffffff169050600073ffffffffffffffffffffffffffffffffffffffff168173ffffffffffffffffffffffffffffffffffffffff161415611133576040517f08c379a000000000000000000000000000000000000000000000000000000000815260040161112a90613a8e565b60405180910390fd5b80915050919050565b6000600f6000838152602001908152602001600020905060008160030160009054906101000a900473ffffffffffffffffffffffffffffffffffffffff169050600082600001541180156111965750600e54826000015411155b61119f57600080fd5b8160040160149054906101000a900460ff166111ba57600080fd5b3373ffffffffffffffffffffffffffffffffffffffff168260030160009054906101000a900473ffffffffffffffffffffffffffffffffffffffff1673ffffffffffffffffffffffffffffffffffffffff16141561121757600080fd5b338260030160006101000a81548173ffffffffffffffffffffffffffffffffffffffff021916908373ffffffffffffffffffffffffffffffffffffffff16021790555060018260040160156101000a81548160ff02191690831515021790555081600f600085815260200190815260200160002060008201548160000155600182018160010190805460018160011615610100020316600290046112bc929190612bfb565b50600282015481600201556003820160009054906101000a900473ffffffffffffffffffffffffffffffffffffffff168160030160006101000a81548173ffffffffffffffffffffffffffffffffffffffff021916908373ffffffffffffffffffffffffffffffffffffffff1602179055506003820160149054906101000a900460ff168160030160146101000a81548160ff0219169083151502179055506004820160009054906101000a900473ffffffffffffffffffffffffffffffffffffffff168160040160006101000a81548173ffffffffffffffffffffffffffffffffffffffff021916908373ffffffffffffffffffffffffffffffffffffffff1602179055506004820160149054906101000a900460ff168160040160146101000a81548160ff0219169083151502179055506004820160159054906101000a900460ff168160040160156101000a81548160ff0219169083151502179055506005820160009054906101000a900473ffffffffffffffffffffffffffffffffffffffff168160050160006101000a81548173ffffffffffffffffffffffffffffffffffffffff021916908373ffffffffffffffffffffffffffffffffffffffff1602179055509050508160050160009054906101000a9050508073ffffffffffffffffffffffffffffffffffffffff166108fc349081150290604051600060405180830381858888f193505050501580156114dc573d6000803e3d6000fd5b507f6baa9157ebbc4bfef030fa128c97e2d064153d7facf015fd055ffc9ca01230be600e548360010184600201548560030160009054906101000a900473ffffffffffffffffffffffffffffffffffffffff166001336001808a60050160009054906101000a900473ffffffffffffffffffffffffffffffffffffffff1660405161156f99989796959493929190613cb1565b60405180910390a1505050565b6060600b8054600181600116156101000203166002900480601f0160208091040260200160405190810160405280929190818152602001828054600181600116156101000203166002900480156116145780601f106115e957610100808354040283529160200191611614565b820191906000526020600020905b8154815290600101906020018083116115f757829003601f168201915b5050505050905090565b60008073ffffffffffffffffffffffffffffffffffffffff168273ffffffffffffffffffffffffffffffffffffffff16141561168f576040517f08c379a000000000000000000000000000000000000000000000000000000000815260040161168690613a6e565b60405180910390fd5b6116d6600360008473ffffffffffffffffffffffffffffffffffffffff1673ffffffffffffffffffffffffffffffffffffffff1681526020019081526020016000206120fd565b9050919050565b600f602052806000526040600020600091509050806000015490806001018054600181600116156101000203166002900480601f01602080910402602001604051908101604052809291908181526020018280546001816001161561010002031660029004801561178f5780601f106117645761010080835404028352916020019161178f565b820191906000526020600020905b81548152906001019060200180831161177257829003601f168201915b5050505050908060020154908060030160009054906101000a900473ffffffffffffffffffffffffffffffffffffffff16908060030160149054906101000a900460ff16908060040160009054906101000a900473ffffffffffffffffffffffffffffffffffffffff16908060040160149054906101000a900460ff16908060040160159054906101000a900460ff16908060050160009054906101000a900473ffffffffffffffffffffffffffffffffffffffff16905089565b600083511161185857600080fd5b6000821161186557600080fd5b600e60008154809291906001019190505550604051806101200160405280600e5481526020018481526020018381526020013373ffffffffffffffffffffffffffffffffffffffff1681526020016000151581526020013373ffffffffffffffffffffffffffffffffffffffff1681526020016000151581526020016000151581526020018273ffffffffffffffffffffffffffffffffffffffff16815250600f6000600e54815260200190815260200160002060008201518160000155602082015181600101908051906020019061193f929190612c82565b506040820151816002015560608201518160030160006101000a81548173ffffffffffffffffffffffffffffffffffffffff021916908373ffffffffffffffffffffffffffffffffffffffff16021790555060808201518160030160146101000a81548160ff02191690831515021790555060a08201518160040160006101000a81548173ffffffffffffffffffffffffffffffffffffffff021916908373ffffffffffffffffffffffffffffffffffffffff16021790555060c08201518160040160146101000a81548160ff02191690831515021790555060e08201518160040160156101000a81548160ff0219169083151502179055506101008201518160050160006101000a81548173ffffffffffffffffffffffffffffffffffffffff021916908373ffffffffffffffffffffffffffffffffffffffff160217905550905050611a8f33600e5461210b565b7f0f6798a560793a54c3bcfe86a93cde1e73087d944c0ea20544137d412139688533600e54604051611ac2929190613926565b60405180910390a17f872817ff91c09cd83cb429fc2bea2b3f81cfe65c713fb0dbe54e5f73ed92eacc600e5484843360003360008089604051611b0d99989796959493929190613b89565b60405180910390a1505050565b6060600a8054600181600116156101000203166002900480601f016020809104026020016040519081016040528092919081815260200182805460018160011615610100020316600290048015611bb25780601f10611b8757610100808354040283529160200191611bb2565b820191906000526020600020905b815481529060010190602001808311611b9557829003601f168201915b5050505050905090565b611bc4611ff3565b73ffffffffffffffffffffffffffffffffffffffff168273ffffffffffffffffffffffffffffffffffffffff161415611c32576040517f08c379a0000000000000000000000000000000000000000000000000000000008152600401611c2990613a2e565b60405180910390fd5b8060046000611c3f611ff3565b73ffffffffffffffffffffffffffffffffffffffff1673ffffffffffffffffffffffffffffffffffffffff16815260200190815260200160002060008473ffffffffffffffffffffffffffffffffffffffff1673ffffffffffffffffffffffffffffffffffffffff16815260200190815260200160002060006101000a81548160ff0219169083151502179055508173ffffffffffffffffffffffffffffffffffffffff16611cec611ff3565b73ffffffffffffffffffffffffffffffffffffffff167f17307eab39ab6107e8899845ad3d59bd9653f200f220920489ca2b5937696c3183604051611d31919061394f565b60405180910390a35050565b611d4e611d48611ff3565b83611ffb565b611d8d576040517f08c379a0000000000000000000000000000000000000000000000000000000008152600401611d8490613b2e565b60405180910390fd5b611d998484848461212c565b50505050565b6060611daa82611f81565b611de9576040517f08c379a0000000000000000000000000000000000000000000000000000000008152600401611de090613b0e565b60405180910390fd5b6060600c60008481526020019081526020016000208054600181600116156101000203166002900480601f016020809104026020016040519081016040528092919081815260200182805460018160011615610100020316600290048015611e925780601f10611e6757610100808354040283529160200191611e92565b820191906000526020600020905b815481529060010190602001808311611e7557829003601f168201915b50505050509050600081511415611ebb5760405180602001604052806000815250915050611ee2565b600b81604051602001611ecf92919061389b565b6040516020818303038152906040529150505b919050565b600e5481565b6000600460008473ffffffffffffffffffffffffffffffffffffffff1673ffffffffffffffffffffffffffffffffffffffff16815260200190815260200160002060008373ffffffffffffffffffffffffffffffffffffffff1673ffffffffffffffffffffffffffffffffffffffff16815260200190815260200160002060009054906101000a900460ff16905092915050565b6000806001600084815260200190815260200160002060009054906101000a900473ffffffffffffffffffffffffffffffffffffffff169050600073ffffffffffffffffffffffffffffffffffffffff168173ffffffffffffffffffffffffffffffffffffffff161415915050919050565b600033905090565b600061200682611f81565b612045576040517f08c379a000000000000000000000000000000000000000000000000000000000815260040161203c90613a4e565b60405180910390fd5b60006120508361108a565b90508073ffffffffffffffffffffffffffffffffffffffff168473ffffffffffffffffffffffffffffffffffffffff1614806120bf57508373ffffffffffffffffffffffffffffffffffffffff166120a78461067e565b73ffffffffffffffffffffffffffffffffffffffff16145b806120d057506120cf8185611eed565b5b91505092915050565b6120e4838383612188565b6120ee83826123b7565b6120f88282612555565b505050565b600081600001549050919050565b612115828261261c565b61211f8282612555565b612128816127ce565b5050565b6121378484846120d9565b6121438484848461281a565b612182576040517f08c379a0000000000000000000000000000000000000000000000000000000008152600401612179906139ce565b60405180910390fd5b50505050565b8273ffffffffffffffffffffffffffffffffffffffff166121a88261108a565b73ffffffffffffffffffffffffffffffffffffffff16146121fe576040517f08c379a00000000000000000000000000000000000000000000000000000000081526004016121f590613aee565b60405180910390fd5b600073ffffffffffffffffffffffffffffffffffffffff168273ffffffffffffffffffffffffffffffffffffffff16141561226e576040517f08c379a000000000000000000000000000000000000000000000000000000000815260040161226590613a0e565b60405180910390fd5b61227781612a14565b6122be600360008573ffffffffffffffffffffffffffffffffffffffff1673ffffffffffffffffffffffffffffffffffffffff168152602001908152602001600020612ad2565b612305600360008473ffffffffffffffffffffffffffffffffffffffff1673ffffffffffffffffffffffffffffffffffffffff168152602001908152602001600020612af5565b816001600083815260200190815260200160002060006101000a81548173ffffffffffffffffffffffffffffffffffffffff021916908373ffffffffffffffffffffffffffffffffffffffff160217905550808273ffffffffffffffffffffffffffffffffffffffff168473ffffffffffffffffffffffffffffffffffffffff167fddf252ad1be2c89b69c2b068fc378daa952ba7f163c4a11628f55a4df523b3ef60405160405180910390a4505050565b600061240f6001600560008673ffffffffffffffffffffffffffffffffffffffff1673ffffffffffffffffffffffffffffffffffffffff16815260200190815260200160002080549050612b0b90919063ffffffff16565b90506000600660008481526020019081526020016000205490508181146124fc576000600560008673ffffffffffffffffffffffffffffffffffffffff1673ffffffffffffffffffffffffffffffffffffffff168152602001908152602001600020838154811061247c57fe5b9060005260206000200154905080600560008773ffffffffffffffffffffffffffffffffffffffff1673ffffffffffffffffffffffffffffffffffffffff16815260200190815260200160002083815481106124d457fe5b9060005260206000200181905550816006600083815260200190815260200160002081905550505b600560008573ffffffffffffffffffffffffffffffffffffffff1673ffffffffffffffffffffffffffffffffffffffff16815260200190815260200160002080548091906001900361254e9190612d02565b5050505050565b600560008373ffffffffffffffffffffffffffffffffffffffff1673ffffffffffffffffffffffffffffffffffffffff168152602001908152602001600020805490506006600083815260200190815260200160002081905550600560008373ffffffffffffffffffffffffffffffffffffffff1673ffffffffffffffffffffffffffffffffffffffff1681526020019081526020016000208190806001815401808255809150509060018203906000526020600020016000909192909190915055505050565b600073ffffffffffffffffffffffffffffffffffffffff168273ffffffffffffffffffffffffffffffffffffffff16141561268c576040517f08c379a000000000000000000000000000000000000000000000000000000000815260040161268390613aae565b60405180910390fd5b61269581611f81565b156126d5576040517f08c379a00000000000000000000000000000000000000000000000000000000081526004016126cc906139ee565b60405180910390fd5b816001600083815260200190815260200160002060006101000a81548173ffffffffffffffffffffffffffffffffffffffff021916908373ffffffffffffffffffffffffffffffffffffffff16021790555061276e600360008473ffffffffffffffffffffffffffffffffffffffff1673ffffffffffffffffffffffffffffffffffffffff168152602001908152602001600020612af5565b808273ffffffffffffffffffffffffffffffffffffffff16600073ffffffffffffffffffffffffffffffffffffffff167fddf252ad1be2c89b69c2b068fc378daa952ba7f163c4a11628f55a4df523b3ef60405160405180910390a45050565b6007805490506008600083815260200190815260200160002081905550600781908060018154018082558091505090600182039060005260206000200160009091929091909150555050565b600061283b8473ffffffffffffffffffffffffffffffffffffffff16612b55565b6128485760019050612a0c565b600060608573ffffffffffffffffffffffffffffffffffffffff168673ffffffffffffffffffffffffffffffffffffffff1663150b7a02905060e01b61288c611ff3565b8988886040516024016128a294939291906138da565b604051602081830303815290604052907bffffffffffffffffffffffffffffffffffffffffffffffffffffffff19166020820180517bffffffffffffffffffffffffffffffffffffffffffffffffffffffff838183161783525050505060405161290c9190613884565b6000604051808303816000865af19150503d8060008114612949576040519150601f19603f3d011682016040523d82523d6000602084013e61294e565b606091505b5091509150816129a65760008151111561296b5780518082602001fd5b6040517f08c379a000000000000000000000000000000000000000000000000000000000815260040161299d906139ce565b60405180910390fd5b6000818060200190516129bc9190810190613034565b905063150b7a0260e01b7bffffffffffffffffffffffffffffffffffffffffffffffffffffffff1916817bffffffffffffffffffffffffffffffffffffffffffffffffffffffff19161493505050505b949350505050565b600073ffffffffffffffffffffffffffffffffffffffff166002600083815260200190815260200160002060009054906101000a900473ffffffffffffffffffffffffffffffffffffffff1673ffffffffffffffffffffffffffffffffffffffff1614612acf5760006002600083815260200190815260200160002060006101000a81548173ffffffffffffffffffffffffffffffffffffffff021916908373ffffffffffffffffffffffffffffffffffffffff1602179055505b50565b612aea60018260000154612b0b90919063ffffffff16565b816000018190555050565b6001816000016000828254019250508190555050565b6000612b4d83836040518060400160405280601e81526020017f536166654d6174683a207375627472616374696f6e206f766572666c6f770000815250612ba0565b905092915050565b60008060007fc5d2460186f7233c927e7db2dcc703c0e500b653ca82273b7bfad8045d85a47060001b9050833f9150808214158015612b9757506000801b8214155b92505050919050565b6000838311158290612be8576040517f08c379a0000000000000000000000000000000000000000000000000000000008152600401612bdf919061398c565b60405180910390fd5b5060008385039050809150509392505050565b828054600181600116156101000203166002900490600052602060002090601f016020900481019282601f10612c345780548555612c71565b82800160010185558215612c7157600052602060002091601f016020900482015b82811115612c70578254825591600101919060010190612c55565b5b509050612c7e9190612d2e565b5090565b828054600181600116156101000203166002900490600052602060002090601f016020900481019282601f10612cc357805160ff1916838001178555612cf1565b82800160010185558215612cf1579182015b82811115612cf0578251825591602001919060010190612cd5565b5b509050612cfe9190612d2e565b5090565b815481835581811115612d2957818360005260206000209182019101612d289190612d2e565b5b505050565b612d5091905b80821115612d4c576000816000905550600101612d34565b5090565b90565b600081359050612d6281613fdb565b92915050565b600081359050612d7781613ff2565b92915050565b600081359050612d8c81614009565b92915050565b600081519050612da181614009565b92915050565b600082601f830112612db857600080fd5b8135612dcb612dc682613e06565b613dd9565b91508082526020830160208301858383011115612de757600080fd5b612df2838284613f88565b50505092915050565b600082601f830112612e0c57600080fd5b8135612e1f612e1a82613e32565b613dd9565b91508082526020830160208301858383011115612e3b57600080fd5b612e46838284613f88565b50505092915050565b600081359050612e5e81614020565b92915050565b600060208284031215612e7657600080fd5b6000612e8484828501612d53565b91505092915050565b60008060408385031215612ea057600080fd5b6000612eae85828601612d53565b9250506020612ebf85828601612d53565b9150509250929050565b600080600060608486031215612ede57600080fd5b6000612eec86828701612d53565b9350506020612efd86828701612d53565b9250506040612f0e86828701612e4f565b9150509250925092565b60008060008060808587031215612f2e57600080fd5b6000612f3c87828801612d53565b9450506020612f4d87828801612d53565b9350506040612f5e87828801612e4f565b925050606085013567ffffffffffffffff811115612f7b57600080fd5b612f8787828801612da7565b91505092959194509250565b60008060408385031215612fa657600080fd5b6000612fb485828601612d53565b9250506020612fc585828601612d68565b9150509250929050565b60008060408385031215612fe257600080fd5b6000612ff085828601612d53565b925050602061300185828601612e4f565b9150509250929050565b60006020828403121561301d57600080fd5b600061302b84828501612d7d565b91505092915050565b60006020828403121561304657600080fd5b600061305484828501612d92565b91505092915050565b60008060006060848603121561307257600080fd5b600084013567ffffffffffffffff81111561308c57600080fd5b61309886828701612dfb565b93505060206130a986828701612e4f565b92505060406130ba86828701612d53565b9150509250925092565b6000602082840312156130d657600080fd5b60006130e484828501612e4f565b91505092915050565b6130f681613f52565b82525050565b61310581613ede565b82525050565b61311481613ecc565b82525050565b61312381613ef0565b82525050565b600061313482613e73565b61313e8185613e94565b935061314e818560208601613f97565b61315781613fca565b840191505092915050565b600061316d82613e73565b6131778185613ea5565b9350613187818560208601613f97565b80840191505092915050565b600061319e82613e89565b6131a88185613eb0565b93506131b8818560208601613f97565b6131c181613fca565b840191505092915050565b60006131d782613e89565b6131e18185613ec1565b93506131f1818560208601613f97565b80840191505092915050565b600061320882613e7e565b6132128185613eb0565b9350613222818560208601613f97565b61322b81613fca565b840191505092915050565b6000815460018116600081146132535760018114613279576132bd565b607f60028304166132648187613eb0565b955060ff1983168652602086019350506132bd565b600282046132878187613eb0565b955061329285613e5e565b60005b828110156132b457815481890152600182019150602081019050613295565b80880195505050505b505092915050565b6000815460018116600081146132e257600181146133075761334b565b607f60028304166132f38187613ec1565b955060ff198316865280860193505061334b565b600282046133158187613ec1565b955061332085613e5e565b60005b8281101561334257815481890152600182019150602081019050613323565b82880195505050505b505092915050565b6000613360602b83613eb0565b91507f455243373231456e756d657261626c653a206f776e657220696e646578206f7560008301527f74206f6620626f756e64730000000000000000000000000000000000000000006020830152604082019050919050565b60006133c6603283613eb0565b91507f4552433732313a207472616e7366657220746f206e6f6e20455243373231526560008301527f63656976657220696d706c656d656e74657200000000000000000000000000006020830152604082019050919050565b600061342c601c83613eb0565b91507f4552433732313a20746f6b656e20616c7265616479206d696e746564000000006000830152602082019050919050565b600061346c602483613eb0565b91507f4552433732313a207472616e7366657220746f20746865207a65726f2061646460008301527f72657373000000000000000000000000000000000000000000000000000000006020830152604082019050919050565b60006134d2601983613eb0565b91507f4552433732313a20617070726f766520746f2063616c6c6572000000000000006000830152602082019050919050565b6000613512602c83613eb0565b91507f4552433732313a206f70657261746f7220717565727920666f72206e6f6e657860008301527f697374656e7420746f6b656e00000000000000000000000000000000000000006020830152604082019050919050565b6000613578602a83613eb0565b91507f4552433732313a2062616c616e636520717565727920666f7220746865207a6560008301527f726f2061646472657373000000000000000000000000000000000000000000006020830152604082019050919050565b60006135de602983613eb0565b91507f4552433732313a206f776e657220717565727920666f72206e6f6e657869737460008301527f656e7420746f6b656e00000000000000000000000000000000000000000000006020830152604082019050919050565b6000613644602083613eb0565b91507f4552433732313a206d696e7420746f20746865207a65726f20616464726573736000830152602082019050919050565b6000613684602c83613eb0565b91507f4552433732313a20617070726f76656420717565727920666f72206e6f6e657860008301527f697374656e7420746f6b656e00000000000000000000000000000000000000006020830152604082019050919050565b60006136ea602983613eb0565b91507f4552433732313a207472616e73666572206f6620746f6b656e2074686174206960008301527f73206e6f74206f776e00000000000000000000000000000000000000000000006020830152604082019050919050565b6000613750602f83613eb0565b91507f4552433732314d657461646174613a2055524920717565727920666f72206e6f60008301527f6e6578697374656e7420746f6b656e00000000000000000000000000000000006020830152604082019050919050565b60006137b6603183613eb0565b91507f4552433732313a207472616e736665722063616c6c6572206973206e6f74206f60008301527f776e6572206e6f7220617070726f7665640000000000000000000000000000006020830152604082019050919050565b600061381c602c83613eb0565b91507f455243373231456e756d657261626c653a20676c6f62616c20696e646578206f60008301527f7574206f6620626f756e647300000000000000000000000000000000000000006020830152604082019050919050565b61387e81613f48565b82525050565b60006138908284613162565b915081905092915050565b60006138a782856132c5565b91506138b382846131cc565b91508190509392505050565b60006020820190506138d4600083018461310b565b92915050565b60006080820190506138ef60008301876130fc565b6138fc602083018661310b565b6139096040830185613875565b818103606083015261391b8184613129565b905095945050505050565b600060408201905061393b60008301856130ed565b6139486020830184613875565b9392505050565b6000602082019050613964600083018461311a565b92915050565b6000602082019050818103600083015261398481846131fd565b905092915050565b600060208201905081810360008301526139a68184613193565b905092915050565b600060208201905081810360008301526139c781613353565b9050919050565b600060208201905081810360008301526139e7816133b9565b9050919050565b60006020820190508181036000830152613a078161341f565b9050919050565b60006020820190508181036000830152613a278161345f565b9050919050565b60006020820190508181036000830152613a47816134c5565b9050919050565b60006020820190508181036000830152613a6781613505565b9050919050565b60006020820190508181036000830152613a878161356b565b9050919050565b60006020820190508181036000830152613aa7816135d1565b9050919050565b60006020820190508181036000830152613ac781613637565b9050919050565b60006020820190508181036000830152613ae781613677565b9050919050565b60006020820190508181036000830152613b07816136dd565b9050919050565b60006020820190508181036000830152613b2781613743565b9050919050565b60006020820190508181036000830152613b47816137a9565b9050919050565b60006020820190508181036000830152613b678161380f565b9050919050565b6000602082019050613b836000830184613875565b92915050565b600061012082019050613b9f600083018c613875565b8181036020830152613bb1818b613193565b9050613bc0604083018a613875565b613bcd60608301896130ed565b613bda608083018861311a565b613be760a08301876130ed565b613bf460c083018661311a565b613c0160e083018561311a565b613c0f61010083018461310b565b9a9950505050505050505050565b600061012082019050613c33600083018c613875565b8181036020830152613c45818b6131fd565b9050613c54604083018a613875565b613c6160608301896130fc565b613c6e608083018861311a565b613c7b60a083018761310b565b613c8860c083018661311a565b613c9560e083018561311a565b613ca361010083018461310b565b9a9950505050505050505050565b600061012082019050613cc7600083018c613875565b8181036020830152613cd9818b613236565b9050613ce8604083018a613875565b613cf560608301896130fc565b613d02608083018861311a565b613d0f60a08301876130ed565b613d1c60c083018661311a565b613d2960e083018561311a565b613d3761010083018461310b565b9a9950505050505050505050565b600061012082019050613d5b600083018c613875565b8181036020830152613d6d818b613236565b9050613d7c604083018a613875565b613d89606083018961310b565b613d96608083018861311a565b613da360a083018761310b565b613db060c083018661311a565b613dbd60e083018561311a565b613dcb61010083018461310b565b9a9950505050505050505050565b6000604051905081810181811067ffffffffffffffff82111715613dfc57600080fd5b8060405250919050565b600067ffffffffffffffff821115613e1d57600080fd5b601f19601f8301169050602081019050919050565b600067ffffffffffffffff821115613e4957600080fd5b601f19601f8301169050602081019050919050565b60008190508160005260206000209050919050565b600081519050919050565b600081519050919050565b600081519050919050565b600082825260208201905092915050565b600081905092915050565b600082825260208201905092915050565b600081905092915050565b6000613ed782613f28565b9050919050565b6000613ee982613f28565b9050919050565b60008115159050919050565b60007fffffffff0000000000000000000000000000000000000000000000000000000082169050919050565b600073ffffffffffffffffffffffffffffffffffffffff82169050919050565b6000819050919050565b6000613f5d82613f64565b9050919050565b6000613f6f82613f76565b9050919050565b6000613f8182613f28565b9050919050565b82818337600083830152505050565b60005b83811015613fb5578082015181840152602081019050613f9a565b83811115613fc4576000848401525b50505050565b6000601f19601f8301169050919050565b613fe481613ecc565b8114613fef57600080fd5b50565b613ffb81613ef0565b811461400657600080fd5b50565b61401281613efc565b811461401d57600080fd5b50565b61402981613f48565b811461403457600080fd5b5056fea365627a7a723158209b95cbc6a2bfa9e6edcce06ba57a3ba4fcae9c66aed2d5fd6a4ab2b0e6af3e796c6578706572696d656e74616cf564736f6c63430005100040",
  "source": "pragma solidity >=0.5.16 <0.7.0;\npragma experimental ABIEncoderV2;\n\nimport \"../node_modules/openzeppelin-solidity/contracts/token/ERC721/ERC721Full.sol\";\n\n\ncontract Marketplace is ERC721Full {\n    string public name;\n    uint256 public productCount = 0;\n\n    mapping(uint256 => Product) public products;\n    mapping(uint256 => address) private _tokenApprovals;\n    mapping(address => mapping(address => bool)) private _operatorApprovals;\n    // mapping(uint256 => string) private _tokenURIs;\n\n    struct Product {\n        uint256 id;\n        string name;\n        uint256 price;\n        address payable owner;\n        bool purchased;\n        address buyer;\n        bool approvedFromOwnerToBuyer;\n        bool sended;\n        address approver;\n        // bool transfered;\n        // string tokenURI;\n    }\n\n    event ProductCreated(\n        uint256 id,\n        string name,\n        uint256 price,\n        address owner,\n        bool purchased,\n        address buyer,\n        bool approvedFromOwnerToBuyer,\n        bool sended,\n        address approver\n        // bool transfered,\n        // string tokenURI\n    );\n\n    event ProductPurchased(\n        uint256 id,\n        string name,\n        uint256 price,\n        address payable owner,\n        bool purchased,\n        address buyer,\n        bool approvedFromOwnerToBuyer,\n        bool sended,\n        address approver\n        // bool transfered,\n        // string tokenURI\n    );\n\n    event Approval(\n        address indexed owner,\n        address indexed approved,\n        uint256 indexed tokenId\n    );\n    event Mint(address owner, uint256 id);\n\n    constructor(string memory _name, string memory _symbol)\n        public\n        ERC721Full(_name, _symbol)\n    {\n        name = \"cites\";\n        _symbol = \"CITES\";\n    }\n\n    //\n    function createProduct(\n        string memory _name,\n        uint256 _price,\n        address _approver // returns (uint256)\n    ) public {\n        require(bytes(_name).length > 0);\n        require(_price > 0);\n\n        productCount++; //ID\n        products[productCount] = Product(\n            productCount,\n            _name,\n            _price,\n            msg.sender,\n            false,\n            msg.sender,\n            false,\n            false,\n            _approver\n            // false\n            // _tokenURI\n        );\n        // uint256 id = productCount;\n\n        super._mint(msg.sender, productCount); //\n\n        emit Mint(msg.sender, productCount);\n        emit ProductCreated(\n            productCount,\n            _name,\n            _price,\n            msg.sender,\n            false,\n            msg.sender, // = \n            false,\n            false,\n            _approver\n            // false\n        );\n        // return id;\n    }\n\n    //URI\n    // function _setTokenURI(uint256 tokenId, string memory _tokenURI) internal {\n    //     require(_exists(tokenId));\n    //     _tokenURIs[tokenId] = _tokenURI;\n    // }\n\n    //\n    // function productreturn(uint256 id) public view returns (Product memory) {\n    //     return products[id];\n    // }\n\n    //\n    function purchaseProduct(uint256 _id) public {\n        Product storage _product = products[_id];\n\n        address payable _seller = _product.owner;\n\n        // require(_product.id > 0 && _product.id <= productCount);\n        // require(!_product.purchased);\n        require(_product.owner != msg.sender);\n\n        _product.buyer = msg.sender;\n        _product.purchased = true; //\n        _product.approver;\n        products[_id] = _product; //\n\n        // address(_seller).transfer(msg.value); //\n        emit ProductPurchased(\n            productCount,\n            _product.name,\n            _product.price,\n            _seller,\n            true, //purchased\n            msg.sender, //\n            false, //non approved\n            false, //non sended\n            _product.approver\n            // false\n        );\n    }\n\n    //(  \n    function approve(address _to, uint256 _id) public {\n        // function approve(address _to, uint256 _id) public {\n        Product storage _product = products[_id];\n        address _owner = _product.owner;\n\n        // address owner = ownerOf(_id); //\n\n        require(_product.approver == msg.sender); //\n        // require(_msgSender() == owner || isApprovedForAll(owner, _msgSender()));\n        require(_product.purchased);\n\n        _tokenApprovals[_id] = _to;\n        emit Approval(_owner, _to, _id);\n\n        _product.approvedFromOwnerToBuyer = true;\n        _product.approver;\n        products[_id] = _product;\n\n        emit ProductCreated(\n            productCount,\n            _product.name,\n            _product.price,\n            _owner,\n            true, //purchased\n            _tokenApprovals[_id], // = \n            true, // approved\n            false, //non sended\n            _product.approver\n            // false //non transfered\n        );\n    }\n\n    //CITES  (5/3)\n    // function middlemanApprove(address from, address _to, uint _id) public returns(bool){\n    // }\n\n    //   \n    function sendMoney(uint256 _id) public payable {\n        Product storage _product = products[_id];\n        address payable _seller = _product.owner;\n\n        require(_product.id > 0 && _product.id <= productCount);\n        // require(msg.value >= _product.price);\n        // require(_product.purchased); //\n        require(_product.approvedFromOwnerToBuyer);\n        require(_product.owner != msg.sender);\n        // require(getApproved(_id) == msg.sender); //\n\n        // \n        _product.owner = msg.sender;\n        _product.sended = true;\n        products[_id] = _product;\n        _product.approver;\n        address(_seller).transfer(msg.value);\n\n        emit ProductPurchased(\n            productCount,\n            _product.name,\n            _product.price,\n            _product.owner,\n            true, //purchased\n            msg.sender, // = \n            true, // approved\n            true, //sended\n            _product.approver\n            // false\n        );\n        // safeTransferFrom(_seller,msg.sender,_id);\n    }\n\n    //safeTransferfromfrom , to require( == true)\n    // function safeTransferFrom(address _from, address _to, uint256 _id) public {\n    //     Product storage _product = products[_id];\n\n    //     require(_product.purchased); //true\n    //     require(_product.sended);\n\n    //     require(_isApprovedOrOwner(_msgSender(), _id));\n    //     _safeTransferFrom(_from, _to, _id, \"\");\n\n    //     _product.owner = msg.sender;\n    //     _product.transfered = true;\n    //     products[_id] = _product;\n\n    //     emit ProductPurchased(\n    //         productCount,\n    //         _product.name,\n    //         _product.price,\n    //         _product.owner,\n    //         true, //purchased\n    //         msg.sender, // = \n    //         true, // approved\n    //         true, //sended\n    //         true\n    //     );\n    // }\n}\n",
  "sourcePath": "/Users/lingchuyongtai/Desktop/CITES/CITES/contracts/Marketplace.sol",
  "compiler": {
    "name": "solc",
    "version": "0.5.16+commit.9c3226ce.Emscripten.clang"
  },
  "schemaVersion": "3.1.0",
  "updatedAt": "2020-05-07T11:42:53.584Z",
  "networkType": "ethereum",
  "devdoc": {
    "methods": {
      "balanceOf(address)": {
        "details": "Gets the balance of the specified address.",
        "params": {
          "owner": "address to query the balance of"
        },
        "return": "uint256 representing the amount owned by the passed address"
      },
      "baseURI()": {
        "details": "Returns the base URI set via {_setBaseURI}. This will be automatically added as a preffix in {tokenURI} to each token's URI, when they are non-empty.    * _Available since v2.5.0._"
      },
      "getApproved(uint256)": {
        "details": "Gets the approved address for a token ID, or zero if no address set Reverts if the token ID does not exist.",
        "params": {
          "tokenId": "uint256 ID of the token to query the approval of"
        },
        "return": "address currently approved for the given token ID"
      },
      "isApprovedForAll(address,address)": {
        "details": "Tells whether an operator is approved by a given owner.",
        "params": {
          "operator": "operator address which you want to query the approval of",
          "owner": "owner address which you want to query the approval of"
        },
        "return": "bool whether the given operator is approved by the given owner"
      },
      "ownerOf(uint256)": {
        "details": "Gets the owner of the specified token ID.",
        "params": {
          "tokenId": "uint256 ID of the token to query the owner of"
        },
        "return": "address currently marked as the owner of the given token ID"
      },
      "safeTransferFrom(address,address,uint256)": {
        "details": "Safely transfers the ownership of a given token ID to another address If the target address is a contract, it must implement {IERC721Receiver-onERC721Received}, which is called upon a safe transfer, and return the magic value `bytes4(keccak256(\"onERC721Received(address,address,uint256,bytes)\"))`; otherwise, the transfer is reverted. Requires the msg.sender to be the owner, approved, or operator",
        "params": {
          "from": "current owner of the token",
          "to": "address to receive the ownership of the given token ID",
          "tokenId": "uint256 ID of the token to be transferred"
        }
      },
      "safeTransferFrom(address,address,uint256,bytes)": {
        "details": "Safely transfers the ownership of a given token ID to another address If the target address is a contract, it must implement {IERC721Receiver-onERC721Received}, which is called upon a safe transfer, and return the magic value `bytes4(keccak256(\"onERC721Received(address,address,uint256,bytes)\"))`; otherwise, the transfer is reverted. Requires the _msgSender() to be the owner, approved, or operator",
        "params": {
          "_data": "bytes data to send along with a safe transfer check",
          "from": "current owner of the token",
          "to": "address to receive the ownership of the given token ID",
          "tokenId": "uint256 ID of the token to be transferred"
        }
      },
      "setApprovalForAll(address,bool)": {
        "details": "Sets or unsets the approval of a given operator An operator is allowed to transfer all tokens of the sender on their behalf.",
        "params": {
          "approved": "representing the status of the approval to be set",
          "to": "operator address to set the approval"
        }
      },
      "supportsInterface(bytes4)": {
        "details": "See {IERC165-supportsInterface}.     * Time complexity O(1), guaranteed to always use less than 30 000 gas."
      },
      "symbol()": {
        "details": "Gets the token symbol.",
        "return": "string representing the token symbol"
      },
      "tokenByIndex(uint256)": {
        "details": "Gets the token ID at a given index of all the tokens in this contract Reverts if the index is greater or equal to the total number of tokens.",
        "params": {
          "index": "uint256 representing the index to be accessed of the tokens list"
        },
        "return": "uint256 token ID at the given index of the tokens list"
      },
      "tokenOfOwnerByIndex(address,uint256)": {
        "details": "Gets the token ID at a given index of the tokens list of the requested owner.",
        "params": {
          "index": "uint256 representing the index to be accessed of the requested tokens list",
          "owner": "address owning the tokens list to be accessed"
        },
        "return": "uint256 token ID at the given index of the tokens list owned by the requested address"
      },
      "tokenURI(uint256)": {
        "details": "Returns the URI for a given token ID. May return an empty string.     * If the token's URI is non-empty and a base URI was set (via {_setBaseURI}), it will be added to the token ID's URI as a prefix.     * Reverts if the token ID does not exist."
      },
      "totalSupply()": {
        "details": "Gets the total amount of tokens stored by the contract.",
        "return": "uint256 representing the total amount of tokens"
      },
      "transferFrom(address,address,uint256)": {
        "details": "Transfers the ownership of a given token ID to another address. Usage of this method is discouraged, use {safeTransferFrom} whenever possible. Requires the msg.sender to be the owner, approved, or operator.",
        "params": {
          "from": "current owner of the token",
          "to": "address to receive the ownership of the given token ID",
          "tokenId": "uint256 ID of the token to be transferred"
        }
      }
    }
  },
  "userdoc": {
    "methods": {}
  }
}