{
  "contractName": "Marketplace",
  "abi": [
    {
      "inputs": [
        {
          "internalType": "string",
          "name": "_name",
          "type": "string"
        },
        {
          "internalType": "string",
          "name": "_symbol",
          "type": "string"
        }
      ],
      "payable": false,
      "stateMutability": "nonpayable",
      "type": "constructor"
    },
    {
      "anonymous": false,
      "inputs": [
        {
          "indexed": true,
          "internalType": "address",
          "name": "owner",
          "type": "address"
        },
        {
          "indexed": true,
          "internalType": "address",
          "name": "approved",
          "type": "address"
        },
        {
          "indexed": true,
          "internalType": "uint256",
          "name": "tokenId",
          "type": "uint256"
        }
      ],
      "name": "Approval",
      "type": "event"
    },
    {
      "anonymous": false,
      "inputs": [
        {
          "indexed": true,
          "internalType": "address",
          "name": "owner",
          "type": "address"
        },
        {
          "indexed": true,
          "internalType": "address",
          "name": "operator",
          "type": "address"
        },
        {
          "indexed": false,
          "internalType": "bool",
          "name": "approved",
          "type": "bool"
        }
      ],
      "name": "ApprovalForAll",
      "type": "event"
    },
    {
      "anonymous": false,
      "inputs": [
        {
          "indexed": false,
          "internalType": "address",
          "name": "owner",
          "type": "address"
        },
        {
          "indexed": false,
          "internalType": "uint256",
          "name": "id",
          "type": "uint256"
        }
      ],
      "name": "Mint",
      "type": "event"
    },
    {
      "anonymous": false,
      "inputs": [
        {
          "indexed": false,
          "internalType": "uint256",
          "name": "id",
          "type": "uint256"
        },
        {
          "indexed": false,
          "internalType": "string",
          "name": "country",
          "type": "string"
        },
        {
          "indexed": false,
          "internalType": "string",
          "name": "name",
          "type": "string"
        },
        {
          "indexed": false,
          "internalType": "uint256",
          "name": "price",
          "type": "uint256"
        },
        {
          "indexed": false,
          "internalType": "address",
          "name": "owner",
          "type": "address"
        },
        {
          "indexed": false,
          "internalType": "bool",
          "name": "purchased",
          "type": "bool"
        },
        {
          "indexed": false,
          "internalType": "address",
          "name": "buyer",
          "type": "address"
        },
        {
          "indexed": false,
          "internalType": "bool",
          "name": "approvedFromOwnerToBuyer",
          "type": "bool"
        },
        {
          "indexed": false,
          "internalType": "bool",
          "name": "sended",
          "type": "bool"
        },
        {
          "indexed": false,
          "internalType": "address",
          "name": "approver",
          "type": "address"
        },
        {
          "indexed": false,
          "internalType": "string",
          "name": "tokenURI",
          "type": "string"
        }
      ],
      "name": "ProductCreated",
      "type": "event"
    },
    {
      "anonymous": false,
      "inputs": [
        {
          "indexed": false,
          "internalType": "uint256",
          "name": "id",
          "type": "uint256"
        },
        {
          "indexed": false,
          "internalType": "string",
          "name": "country",
          "type": "string"
        },
        {
          "indexed": false,
          "internalType": "string",
          "name": "name",
          "type": "string"
        },
        {
          "indexed": false,
          "internalType": "uint256",
          "name": "price",
          "type": "uint256"
        },
        {
          "indexed": false,
          "internalType": "address payable",
          "name": "owner",
          "type": "address"
        },
        {
          "indexed": false,
          "internalType": "bool",
          "name": "purchased",
          "type": "bool"
        },
        {
          "indexed": false,
          "internalType": "address",
          "name": "buyer",
          "type": "address"
        },
        {
          "indexed": false,
          "internalType": "bool",
          "name": "approvedFromOwnerToBuyer",
          "type": "bool"
        },
        {
          "indexed": false,
          "internalType": "bool",
          "name": "sended",
          "type": "bool"
        },
        {
          "indexed": false,
          "internalType": "address",
          "name": "approver",
          "type": "address"
        },
        {
          "indexed": false,
          "internalType": "string",
          "name": "tokenURI",
          "type": "string"
        }
      ],
      "name": "ProductPurchased",
      "type": "event"
    },
    {
      "anonymous": false,
      "inputs": [
        {
          "indexed": true,
          "internalType": "address",
          "name": "from",
          "type": "address"
        },
        {
          "indexed": true,
          "internalType": "address",
          "name": "to",
          "type": "address"
        },
        {
          "indexed": true,
          "internalType": "uint256",
          "name": "tokenId",
          "type": "uint256"
        }
      ],
      "name": "Transfer",
      "type": "event"
    },
    {
      "constant": true,
      "inputs": [
        {
          "internalType": "address",
          "name": "owner",
          "type": "address"
        }
      ],
      "name": "balanceOf",
      "outputs": [
        {
          "internalType": "uint256",
          "name": "",
          "type": "uint256"
        }
      ],
      "payable": false,
      "stateMutability": "view",
      "type": "function"
    },
    {
      "constant": true,
      "inputs": [],
      "name": "baseURI",
      "outputs": [
        {
          "internalType": "string",
          "name": "",
          "type": "string"
        }
      ],
      "payable": false,
      "stateMutability": "view",
      "type": "function"
    },
    {
      "constant": true,
      "inputs": [
        {
          "internalType": "uint256",
          "name": "tokenId",
          "type": "uint256"
        }
      ],
      "name": "getApproved",
      "outputs": [
        {
          "internalType": "address",
          "name": "",
          "type": "address"
        }
      ],
      "payable": false,
      "stateMutability": "view",
      "type": "function"
    },
    {
      "constant": true,
      "inputs": [
        {
          "internalType": "address",
          "name": "owner",
          "type": "address"
        },
        {
          "internalType": "address",
          "name": "operator",
          "type": "address"
        }
      ],
      "name": "isApprovedForAll",
      "outputs": [
        {
          "internalType": "bool",
          "name": "",
          "type": "bool"
        }
      ],
      "payable": false,
      "stateMutability": "view",
      "type": "function"
    },
    {
      "constant": true,
      "inputs": [],
      "name": "name",
      "outputs": [
        {
          "internalType": "string",
          "name": "",
          "type": "string"
        }
      ],
      "payable": false,
      "stateMutability": "view",
      "type": "function"
    },
    {
      "constant": true,
      "inputs": [
        {
          "internalType": "uint256",
          "name": "tokenId",
          "type": "uint256"
        }
      ],
      "name": "ownerOf",
      "outputs": [
        {
          "internalType": "address",
          "name": "",
          "type": "address"
        }
      ],
      "payable": false,
      "stateMutability": "view",
      "type": "function"
    },
    {
      "constant": true,
      "inputs": [],
      "name": "productCount",
      "outputs": [
        {
          "internalType": "uint256",
          "name": "",
          "type": "uint256"
        }
      ],
      "payable": false,
      "stateMutability": "view",
      "type": "function"
    },
    {
      "constant": true,
      "inputs": [
        {
          "internalType": "uint256",
          "name": "",
          "type": "uint256"
        }
      ],
      "name": "products",
      "outputs": [
        {
          "internalType": "uint256",
          "name": "id",
          "type": "uint256"
        },
        {
          "internalType": "string",
          "name": "country",
          "type": "string"
        },
        {
          "internalType": "string",
          "name": "name",
          "type": "string"
        },
        {
          "internalType": "uint256",
          "name": "price",
          "type": "uint256"
        },
        {
          "internalType": "address payable",
          "name": "owner",
          "type": "address"
        },
        {
          "internalType": "bool",
          "name": "purchased",
          "type": "bool"
        },
        {
          "internalType": "address",
          "name": "buyer",
          "type": "address"
        },
        {
          "internalType": "bool",
          "name": "approvedFromOwnerToBuyer",
          "type": "bool"
        },
        {
          "internalType": "bool",
          "name": "sended",
          "type": "bool"
        },
        {
          "internalType": "address",
          "name": "approver",
          "type": "address"
        },
        {
          "internalType": "string",
          "name": "tokenURI",
          "type": "string"
        }
      ],
      "payable": false,
      "stateMutability": "view",
      "type": "function"
    },
    {
      "constant": false,
      "inputs": [
        {
          "internalType": "address",
          "name": "from",
          "type": "address"
        },
        {
          "internalType": "address",
          "name": "to",
          "type": "address"
        },
        {
          "internalType": "uint256",
          "name": "tokenId",
          "type": "uint256"
        }
      ],
      "name": "safeTransferFrom",
      "outputs": [],
      "payable": false,
      "stateMutability": "nonpayable",
      "type": "function"
    },
    {
      "constant": false,
      "inputs": [
        {
          "internalType": "address",
          "name": "from",
          "type": "address"
        },
        {
          "internalType": "address",
          "name": "to",
          "type": "address"
        },
        {
          "internalType": "uint256",
          "name": "tokenId",
          "type": "uint256"
        },
        {
          "internalType": "bytes",
          "name": "_data",
          "type": "bytes"
        }
      ],
      "name": "safeTransferFrom",
      "outputs": [],
      "payable": false,
      "stateMutability": "nonpayable",
      "type": "function"
    },
    {
      "constant": false,
      "inputs": [
        {
          "internalType": "address",
          "name": "to",
          "type": "address"
        },
        {
          "internalType": "bool",
          "name": "approved",
          "type": "bool"
        }
      ],
      "name": "setApprovalForAll",
      "outputs": [],
      "payable": false,
      "stateMutability": "nonpayable",
      "type": "function"
    },
    {
      "constant": true,
      "inputs": [
        {
          "internalType": "bytes4",
          "name": "interfaceId",
          "type": "bytes4"
        }
      ],
      "name": "supportsInterface",
      "outputs": [
        {
          "internalType": "bool",
          "name": "",
          "type": "bool"
        }
      ],
      "payable": false,
      "stateMutability": "view",
      "type": "function"
    },
    {
      "constant": true,
      "inputs": [],
      "name": "symbol",
      "outputs": [
        {
          "internalType": "string",
          "name": "",
          "type": "string"
        }
      ],
      "payable": false,
      "stateMutability": "view",
      "type": "function"
    },
    {
      "constant": true,
      "inputs": [
        {
          "internalType": "uint256",
          "name": "index",
          "type": "uint256"
        }
      ],
      "name": "tokenByIndex",
      "outputs": [
        {
          "internalType": "uint256",
          "name": "",
          "type": "uint256"
        }
      ],
      "payable": false,
      "stateMutability": "view",
      "type": "function"
    },
    {
      "constant": true,
      "inputs": [
        {
          "internalType": "address",
          "name": "owner",
          "type": "address"
        },
        {
          "internalType": "uint256",
          "name": "index",
          "type": "uint256"
        }
      ],
      "name": "tokenOfOwnerByIndex",
      "outputs": [
        {
          "internalType": "uint256",
          "name": "",
          "type": "uint256"
        }
      ],
      "payable": false,
      "stateMutability": "view",
      "type": "function"
    },
    {
      "constant": true,
      "inputs": [
        {
          "internalType": "uint256",
          "name": "tokenId",
          "type": "uint256"
        }
      ],
      "name": "tokenURI",
      "outputs": [
        {
          "internalType": "string",
          "name": "",
          "type": "string"
        }
      ],
      "payable": false,
      "stateMutability": "view",
      "type": "function"
    },
    {
      "constant": true,
      "inputs": [],
      "name": "totalSupply",
      "outputs": [
        {
          "internalType": "uint256",
          "name": "",
          "type": "uint256"
        }
      ],
      "payable": false,
      "stateMutability": "view",
      "type": "function"
    },
    {
      "constant": false,
      "inputs": [
        {
          "internalType": "address",
          "name": "from",
          "type": "address"
        },
        {
          "internalType": "address",
          "name": "to",
          "type": "address"
        },
        {
          "internalType": "uint256",
          "name": "tokenId",
          "type": "uint256"
        }
      ],
      "name": "transferFrom",
      "outputs": [],
      "payable": false,
      "stateMutability": "nonpayable",
      "type": "function"
    },
    {
      "constant": false,
      "inputs": [
        {
          "internalType": "string",
          "name": "_country",
          "type": "string"
        },
        {
          "internalType": "string",
          "name": "_name",
          "type": "string"
        },
        {
          "internalType": "uint256",
          "name": "_price",
          "type": "uint256"
        },
        {
          "internalType": "address",
          "name": "_approver",
          "type": "address"
        },
        {
          "internalType": "string",
          "name": "_tokenURI",
          "type": "string"
        }
      ],
      "name": "createProduct",
      "outputs": [],
      "payable": false,
      "stateMutability": "nonpayable",
      "type": "function"
    },
    {
      "constant": false,
      "inputs": [
        {
          "internalType": "uint256",
          "name": "_id",
          "type": "uint256"
        }
      ],
      "name": "purchaseProduct",
      "outputs": [],
      "payable": false,
      "stateMutability": "nonpayable",
      "type": "function"
    },
    {
      "constant": false,
      "inputs": [
        {
          "internalType": "address",
          "name": "_to",
          "type": "address"
        },
        {
          "internalType": "uint256",
          "name": "_id",
          "type": "uint256"
        }
      ],
      "name": "approve",
      "outputs": [],
      "payable": false,
      "stateMutability": "nonpayable",
      "type": "function"
    },
    {
      "constant": false,
      "inputs": [
        {
          "internalType": "uint256",
          "name": "_id",
          "type": "uint256"
        }
      ],
      "name": "sendMoney",
      "outputs": [],
      "payable": true,
      "stateMutability": "payable",
      "type": "function"
    }
  ],
  "bytecode": "0x60806040526000600e553480156200001657600080fd5b5060405162004a5738038062004a5783398181016040526200003c919081019062000347565b81818181620000586301ffc9a760e01b6200016460201b60201c565b620000706380ac58cd60e01b6200016460201b60201c565b6200008863780e9d6360e01b6200016460201b60201c565b8160099080519060200190620000a09291906200023c565b5080600a9080519060200190620000b99291906200023c565b50620000d2635b5e139f60e01b6200016460201b60201c565b505050506040518060400160405280600581526020017f6369746573000000000000000000000000000000000000000000000000000000815250600d9080519060200190620001239291906200023c565b506040518060400160405280600581526020017f434954455300000000000000000000000000000000000000000000000000000081525090505050620004c0565b63ffffffff60e01b817bffffffffffffffffffffffffffffffffffffffffffffffffffffffff19161415620001d0576040517f08c379a0000000000000000000000000000000000000000000000000000000008152600401620001c790620003fc565b60405180910390fd5b6001600080837bffffffffffffffffffffffffffffffffffffffffffffffffffffffff19167bffffffffffffffffffffffffffffffffffffffffffffffffffffffff1916815260200190815260200160002060006101000a81548160ff02191690831515021790555050565b828054600181600116156101000203166002900490600052602060002090601f016020900481019282601f106200027f57805160ff1916838001178555620002b0565b82800160010185558215620002b0579182015b82811115620002af57825182559160200191906001019062000292565b5b509050620002bf9190620002c3565b5090565b620002e891905b80821115620002e4576000816000905550600101620002ca565b5090565b90565b600082601f830112620002fd57600080fd5b8151620003146200030e826200044c565b6200041e565b915080825260208301602083018583830111156200033157600080fd5b6200033e8382846200048a565b50505092915050565b600080604083850312156200035b57600080fd5b600083015167ffffffffffffffff8111156200037657600080fd5b6200038485828601620002eb565b925050602083015167ffffffffffffffff811115620003a257600080fd5b620003b085828601620002eb565b9150509250929050565b6000620003c9601c8362000479565b91507f4552433136353a20696e76616c696420696e74657266616365206964000000006000830152602082019050919050565b600060208201905081810360008301526200041781620003ba565b9050919050565b6000604051905081810181811067ffffffffffffffff821117156200044257600080fd5b8060405250919050565b600067ffffffffffffffff8211156200046457600080fd5b601f19601f8301169050602081019050919050565b600082825260208201905092915050565b60005b83811015620004aa5780820151818401526020810190506200048d565b83811115620004ba576000848401525b50505050565b61458780620004d06000396000f3fe6080604052600436106101355760003560e01c80636352211e116100ab57806395d89b411161006f57806395d89b4114610459578063a22cb46514610484578063b88d4fde146104ad578063c87b56dd146104d6578063e0f6ef8714610513578063e985e9c51461053e57610135565b80636352211e146103515780636ab318391461038e5780636c0360eb146103aa57806370a08231146103d55780637acc0b201461041257610135565b8063216a5c7d116100fd578063216a5c7d1461023357806323b872dd1461025c5780632f745c591461028557806338e76a03146102c257806342842e0e146102eb5780634f6ccce71461031457610135565b806301ffc9a71461013a57806306fdde0314610177578063081812fc146101a2578063095ea7b3146101df57806318160ddd14610208575b600080fd5b34801561014657600080fd5b50610161600480360361015c9190810190613410565b61057b565b60405161016e9190613dac565b60405180910390f35b34801561018357600080fd5b5061018c6105e2565b6040516101999190613dc7565b60405180910390f35b3480156101ae57600080fd5b506101c960048036036101c49190810190613521565b610680565b6040516101d69190613d1c565b60405180910390f35b3480156101eb57600080fd5b50610206600480360361020191908101906133d4565b610705565b005b34801561021457600080fd5b5061021d610baf565b60405161022a9190613fcb565b60405180910390f35b34801561023f57600080fd5b5061025a60048036036102559190810190613462565b610bbc565b005b34801561026857600080fd5b50610283600480360361027e91908101906132ce565b610fc5565b005b34801561029157600080fd5b506102ac60048036036102a791908101906133d4565b611025565b6040516102b99190613fcb565b60405180910390f35b3480156102ce57600080fd5b506102e960048036036102e49190810190613521565b6110ce565b005b3480156102f757600080fd5b50610312600480360361030d91908101906132ce565b6114bf565b005b34801561032057600080fd5b5061033b60048036036103369190810190613521565b6114df565b6040516103489190613fcb565b60405180910390f35b34801561035d57600080fd5b5061037860048036036103739190810190613521565b611549565b6040516103859190613d1c565b60405180910390f35b6103a860048036036103a39190810190613521565b6115fb565b005b3480156103b657600080fd5b506103bf611a95565b6040516103cc9190613de9565b60405180910390f35b3480156103e157600080fd5b506103fc60048036036103f79190810190613269565b611b37565b6040516104099190613fcb565b60405180910390f35b34801561041e57600080fd5b5061043960048036036104349190810190613521565b611bf6565b6040516104509b9a999897969594939291906140a6565b60405180910390f35b34801561046557600080fd5b5061046e611e9f565b60405161047b9190613de9565b60405180910390f35b34801561049057600080fd5b506104ab60048036036104a69190810190613398565b611f41565b005b3480156104b957600080fd5b506104d460048036036104cf919081019061331d565b6120c2565b005b3480156104e257600080fd5b506104fd60048036036104f89190810190613521565b612124565b60405161050a9190613de9565b60405180910390f35b34801561051f57600080fd5b5061052861226c565b6040516105359190613fcb565b60405180910390f35b34801561054a57600080fd5b5061056560048036036105609190810190613292565b612272565b6040516105729190613dac565b60405180910390f35b6000806000837bffffffffffffffffffffffffffffffffffffffffffffffffffffffff19167bffffffffffffffffffffffffffffffffffffffffffffffffffffffff1916815260200190815260200160002060009054906101000a900460ff169050919050565b600d8054600181600116156101000203166002900480601f0160208091040260200160405190810160405280929190818152602001828054600181600116156101000203166002900480156106785780601f1061064d57610100808354040283529160200191610678565b820191906000526020600020905b81548152906001019060200180831161065b57829003601f168201915b505050505081565b600061068b82612306565b6106ca576040517f08c379a00000000000000000000000000000000000000000000000000000000081526004016106c190613f2b565b60405180910390fd5b6002600083815260200190815260200160002060009054906101000a900473ffffffffffffffffffffffffffffffffffffffff169050919050565b6000600f6000838152602001908152602001600020905060008160040160009054906101000a900473ffffffffffffffffffffffffffffffffffffffff1690503373ffffffffffffffffffffffffffffffffffffffff168260060160009054906101000a900473ffffffffffffffffffffffffffffffffffffffff1673ffffffffffffffffffffffffffffffffffffffff16146107a157600080fd5b8160040160149054906101000a900460ff166107bc57600080fd5b836010600085815260200190815260200160002060006101000a81548173ffffffffffffffffffffffffffffffffffffffff021916908373ffffffffffffffffffffffffffffffffffffffff160217905550828473ffffffffffffffffffffffffffffffffffffffff168273ffffffffffffffffffffffffffffffffffffffff167f8c5be1e5ebec7d5bd14f71427d1e84f3dd0314c0f7b2291e5b200ac8c7c3b92560405160405180910390a460018260050160146101000a81548160ff0219169083151502179055508160060160009054906101000a90505081600f600085815260200190815260200160002060008201548160000155600182018160010190805460018160011615610100020316600290046108db929190612f80565b5060028201816002019080546001816001161561010002031660029004610903929190612f80565b50600382015481600301556004820160009054906101000a900473ffffffffffffffffffffffffffffffffffffffff168160040160006101000a81548173ffffffffffffffffffffffffffffffffffffffff021916908373ffffffffffffffffffffffffffffffffffffffff1602179055506004820160149054906101000a900460ff168160040160146101000a81548160ff0219169083151502179055506005820160009054906101000a900473ffffffffffffffffffffffffffffffffffffffff168160050160006101000a81548173ffffffffffffffffffffffffffffffffffffffff021916908373ffffffffffffffffffffffffffffffffffffffff1602179055506005820160149054906101000a900460ff168160050160146101000a81548160ff0219169083151502179055506005820160159054906101000a900460ff168160050160156101000a81548160ff0219169083151502179055506006820160009054906101000a900473ffffffffffffffffffffffffffffffffffffffff168160060160006101000a81548173ffffffffffffffffffffffffffffffffffffffff021916908373ffffffffffffffffffffffffffffffffffffffff16021790555060078201816007019080546001816001161561010002031660029004610af1929190612f80565b509050507fd2e4ab3703c5e3df329da8c2152fcf28718bc63359b9079f7c59c8a4f9766c3a600e5483600101846002018560030154856001601060008b815260200190815260200160002060009054906101000a900473ffffffffffffffffffffffffffffffffffffffff16600160008b60060160009054906101000a900473ffffffffffffffffffffffffffffffffffffffff168c600701604051610ba19b9a99989796959493929190614226565b60405180910390a150505050565b6000600780549050905090565b6000845111610bca57600080fd5b60008311610bd757600080fd5b600e600081548092919060010191905055508060126000600e5481526020019081526020016000209080519060200190610c12929190613007565b50604051806101600160405280600e5481526020018681526020018581526020018481526020013373ffffffffffffffffffffffffffffffffffffffff1681526020016000151581526020013373ffffffffffffffffffffffffffffffffffffffff1681526020016000151581526020016000151581526020018373ffffffffffffffffffffffffffffffffffffffff16815260200160126000600e5481526020019081526020016000208054600181600116156101000203166002900480601f016020809104026020016040519081016040528092919081815260200182805460018160011615610100020316600290048015610d515780601f10610d2657610100808354040283529160200191610d51565b820191906000526020600020905b815481529060010190602001808311610d3457829003601f168201915b5050505050815250600f6000600e548152602001908152602001600020600082015181600001556020820151816001019080519060200190610d94929190613087565b506040820151816002019080519060200190610db1929190613087565b506060820151816003015560808201518160040160006101000a81548173ffffffffffffffffffffffffffffffffffffffff021916908373ffffffffffffffffffffffffffffffffffffffff16021790555060a08201518160040160146101000a81548160ff02191690831515021790555060c08201518160050160006101000a81548173ffffffffffffffffffffffffffffffffffffffff021916908373ffffffffffffffffffffffffffffffffffffffff16021790555060e08201518160050160146101000a81548160ff0219169083151502179055506101008201518160050160156101000a81548160ff0219169083151502179055506101208201518160060160006101000a81548173ffffffffffffffffffffffffffffffffffffffff021916908373ffffffffffffffffffffffffffffffffffffffff160217905550610140820151816007019080519060200190610f10929190613087565b50905050610f2033600e54612378565b7f0f6798a560793a54c3bcfe86a93cde1e73087d944c0ea20544137d412139688533600e54604051610f53929190613d83565b60405180910390a17fd2e4ab3703c5e3df329da8c2152fcf28718bc63359b9079f7c59c8a4f9766c3a600e54868686336000336000808b60126000600e548152602001908152602001600020604051610fb69b9a99989796959493929190613fe6565b60405180910390a15050505050565b610fd6610fd0612399565b826123a1565b611015576040517f08c379a000000000000000000000000000000000000000000000000000000000815260040161100c90613f8b565b60405180910390fd5b61102083838361247f565b505050565b600061103083611b37565b8210611071576040517f08c379a000000000000000000000000000000000000000000000000000000000815260040161106890613e0b565b60405180910390fd5b600560008473ffffffffffffffffffffffffffffffffffffffff1673ffffffffffffffffffffffffffffffffffffffff16815260200190815260200160002082815481106110bb57fe5b9060005260206000200154905092915050565b6000600f6000838152602001908152602001600020905060008160040160009054906101000a900473ffffffffffffffffffffffffffffffffffffffff1690503373ffffffffffffffffffffffffffffffffffffffff168260040160009054906101000a900473ffffffffffffffffffffffffffffffffffffffff1673ffffffffffffffffffffffffffffffffffffffff16141561116b57600080fd5b338260050160006101000a81548173ffffffffffffffffffffffffffffffffffffffff021916908373ffffffffffffffffffffffffffffffffffffffff16021790555060018260040160146101000a81548160ff0219169083151502179055508160060160009054906101000a90505081600f60008581526020019081526020016000206000820154816000015560018201816001019080546001816001161561010002031660029004611220929190612f80565b5060028201816002019080546001816001161561010002031660029004611248929190612f80565b50600382015481600301556004820160009054906101000a900473ffffffffffffffffffffffffffffffffffffffff168160040160006101000a81548173ffffffffffffffffffffffffffffffffffffffff021916908373ffffffffffffffffffffffffffffffffffffffff1602179055506004820160149054906101000a900460ff168160040160146101000a81548160ff0219169083151502179055506005820160009054906101000a900473ffffffffffffffffffffffffffffffffffffffff168160050160006101000a81548173ffffffffffffffffffffffffffffffffffffffff021916908373ffffffffffffffffffffffffffffffffffffffff1602179055506005820160149054906101000a900460ff168160050160146101000a81548160ff0219169083151502179055506005820160159054906101000a900460ff168160050160156101000a81548160ff0219169083151502179055506006820160009054906101000a900473ffffffffffffffffffffffffffffffffffffffff168160060160006101000a81548173ffffffffffffffffffffffffffffffffffffffff021916908373ffffffffffffffffffffffffffffffffffffffff16021790555060078201816007019080546001816001161561010002031660029004611436929190612f80565b509050507f269f1b1fe59de442a78dbdbdaf5591fe4cead8109346e9c7156de7fbd67c501c600e5483600101846002018560030154856001336000808b60060160009054906101000a900473ffffffffffffffffffffffffffffffffffffffff168c6007016040516114b29b9a99989796959493929190614166565b60405180910390a1505050565b6114da838383604051806020016040528060008152506120c2565b505050565b60006114e9610baf565b821061152a576040517f08c379a000000000000000000000000000000000000000000000000000000000815260040161152190613fab565b60405180910390fd5b6007828154811061153757fe5b90600052602060002001549050919050565b6000806001600084815260200190815260200160002060009054906101000a900473ffffffffffffffffffffffffffffffffffffffff169050600073ffffffffffffffffffffffffffffffffffffffff168173ffffffffffffffffffffffffffffffffffffffff1614156115f2576040517f08c379a00000000000000000000000000000000000000000000000000000000081526004016115e990613eeb565b60405180910390fd5b80915050919050565b6000600f6000838152602001908152602001600020905060008160040160009054906101000a900473ffffffffffffffffffffffffffffffffffffffff169050600082600001541180156116555750600e54826000015411155b61165e57600080fd5b8160050160149054906101000a900460ff1661167957600080fd5b3373ffffffffffffffffffffffffffffffffffffffff168260040160009054906101000a900473ffffffffffffffffffffffffffffffffffffffff1673ffffffffffffffffffffffffffffffffffffffff1614156116d657600080fd5b338260040160006101000a81548173ffffffffffffffffffffffffffffffffffffffff021916908373ffffffffffffffffffffffffffffffffffffffff16021790555060018260050160156101000a81548160ff0219169083151502179055508160060160009054906101000a90505081600f6000858152602001908152602001600020600082015481600001556001820181600101908054600181600116156101000203166002900461178b929190612f80565b50600282018160020190805460018160011615610100020316600290046117b3929190612f80565b50600382015481600301556004820160009054906101000a900473ffffffffffffffffffffffffffffffffffffffff168160040160006101000a81548173ffffffffffffffffffffffffffffffffffffffff021916908373ffffffffffffffffffffffffffffffffffffffff1602179055506004820160149054906101000a900460ff168160040160146101000a81548160ff0219169083151502179055506005820160009054906101000a900473ffffffffffffffffffffffffffffffffffffffff168160050160006101000a81548173ffffffffffffffffffffffffffffffffffffffff021916908373ffffffffffffffffffffffffffffffffffffffff1602179055506005820160149054906101000a900460ff168160050160146101000a81548160ff0219169083151502179055506005820160159054906101000a900460ff168160050160156101000a81548160ff0219169083151502179055506006820160009054906101000a900473ffffffffffffffffffffffffffffffffffffffff168160060160006101000a81548173ffffffffffffffffffffffffffffffffffffffff021916908373ffffffffffffffffffffffffffffffffffffffff160217905550600782018160070190805460018160011615610100020316600290046119a1929190612f80565b509050508073ffffffffffffffffffffffffffffffffffffffff166108fc349081150290604051600060405180830381858888f193505050501580156119eb573d6000803e3d6000fd5b507f269f1b1fe59de442a78dbdbdaf5591fe4cead8109346e9c7156de7fbd67c501c600e54836001018460020185600301548660040160009054906101000a900473ffffffffffffffffffffffffffffffffffffffff166001336001808b60060160009054906101000a900473ffffffffffffffffffffffffffffffffffffffff168c600701604051611a889b9a99989796959493929190614166565b60405180910390a1505050565b6060600b8054600181600116156101000203166002900480601f016020809104026020016040519081016040528092919081815260200182805460018160011615610100020316600290048015611b2d5780601f10611b0257610100808354040283529160200191611b2d565b820191906000526020600020905b815481529060010190602001808311611b1057829003601f168201915b5050505050905090565b60008073ffffffffffffffffffffffffffffffffffffffff168273ffffffffffffffffffffffffffffffffffffffff161415611ba8576040517f08c379a0000000000000000000000000000000000000000000000000000000008152600401611b9f90613ecb565b60405180910390fd5b611bef600360008473ffffffffffffffffffffffffffffffffffffffff1673ffffffffffffffffffffffffffffffffffffffff1681526020019081526020016000206124a3565b9050919050565b600f602052806000526040600020600091509050806000015490806001018054600181600116156101000203166002900480601f016020809104026020016040519081016040528092919081815260200182805460018160011615610100020316600290048015611ca85780601f10611c7d57610100808354040283529160200191611ca8565b820191906000526020600020905b815481529060010190602001808311611c8b57829003601f168201915b505050505090806002018054600181600116156101000203166002900480601f016020809104026020016040519081016040528092919081815260200182805460018160011615610100020316600290048015611d465780601f10611d1b57610100808354040283529160200191611d46565b820191906000526020600020905b815481529060010190602001808311611d2957829003601f168201915b5050505050908060030154908060040160009054906101000a900473ffffffffffffffffffffffffffffffffffffffff16908060040160149054906101000a900460ff16908060050160009054906101000a900473ffffffffffffffffffffffffffffffffffffffff16908060050160149054906101000a900460ff16908060050160159054906101000a900460ff16908060060160009054906101000a900473ffffffffffffffffffffffffffffffffffffffff1690806007018054600181600116156101000203166002900480601f016020809104026020016040519081016040528092919081815260200182805460018160011615610100020316600290048015611e955780601f10611e6a57610100808354040283529160200191611e95565b820191906000526020600020905b815481529060010190602001808311611e7857829003601f168201915b505050505090508b565b6060600a8054600181600116156101000203166002900480601f016020809104026020016040519081016040528092919081815260200182805460018160011615610100020316600290048015611f375780601f10611f0c57610100808354040283529160200191611f37565b820191906000526020600020905b815481529060010190602001808311611f1a57829003601f168201915b5050505050905090565b611f49612399565b73ffffffffffffffffffffffffffffffffffffffff168273ffffffffffffffffffffffffffffffffffffffff161415611fb7576040517f08c379a0000000000000000000000000000000000000000000000000000000008152600401611fae90613e8b565b60405180910390fd5b8060046000611fc4612399565b73ffffffffffffffffffffffffffffffffffffffff1673ffffffffffffffffffffffffffffffffffffffff16815260200190815260200160002060008473ffffffffffffffffffffffffffffffffffffffff1673ffffffffffffffffffffffffffffffffffffffff16815260200190815260200160002060006101000a81548160ff0219169083151502179055508173ffffffffffffffffffffffffffffffffffffffff16612071612399565b73ffffffffffffffffffffffffffffffffffffffff167f17307eab39ab6107e8899845ad3d59bd9653f200f220920489ca2b5937696c31836040516120b69190613dac565b60405180910390a35050565b6120d36120cd612399565b836123a1565b612112576040517f08c379a000000000000000000000000000000000000000000000000000000000815260040161210990613f8b565b60405180910390fd5b61211e848484846124b1565b50505050565b606061212f82612306565b61216e576040517f08c379a000000000000000000000000000000000000000000000000000000000815260040161216590613f6b565b60405180910390fd5b6060600c60008481526020019081526020016000208054600181600116156101000203166002900480601f0160208091040260200160405190810160405280929190818152602001828054600181600116156101000203166002900480156122175780601f106121ec57610100808354040283529160200191612217565b820191906000526020600020905b8154815290600101906020018083116121fa57829003601f168201915b505050505090506000815114156122405760405180602001604052806000815250915050612267565b600b81604051602001612254929190613cf8565b6040516020818303038152906040529150505b919050565b600e5481565b6000600460008473ffffffffffffffffffffffffffffffffffffffff1673ffffffffffffffffffffffffffffffffffffffff16815260200190815260200160002060008373ffffffffffffffffffffffffffffffffffffffff1673ffffffffffffffffffffffffffffffffffffffff16815260200190815260200160002060009054906101000a900460ff16905092915050565b6000806001600084815260200190815260200160002060009054906101000a900473ffffffffffffffffffffffffffffffffffffffff169050600073ffffffffffffffffffffffffffffffffffffffff168173ffffffffffffffffffffffffffffffffffffffff161415915050919050565b612382828261250d565b61238c82826126bf565b61239581612786565b5050565b600033905090565b60006123ac82612306565b6123eb576040517f08c379a00000000000000000000000000000000000000000000000000000000081526004016123e290613eab565b60405180910390fd5b60006123f683611549565b90508073ffffffffffffffffffffffffffffffffffffffff168473ffffffffffffffffffffffffffffffffffffffff16148061246557508373ffffffffffffffffffffffffffffffffffffffff1661244d84610680565b73ffffffffffffffffffffffffffffffffffffffff16145b8061247657506124758185612272565b5b91505092915050565b61248a8383836127d2565b6124948382612a01565b61249e82826126bf565b505050565b600081600001549050919050565b6124bc84848461247f565b6124c884848484612b9f565b612507576040517f08c379a00000000000000000000000000000000000000000000000000000000081526004016124fe90613e2b565b60405180910390fd5b50505050565b600073ffffffffffffffffffffffffffffffffffffffff168273ffffffffffffffffffffffffffffffffffffffff16141561257d576040517f08c379a000000000000000000000000000000000000000000000000000000000815260040161257490613f0b565b60405180910390fd5b61258681612306565b156125c6576040517f08c379a00000000000000000000000000000000000000000000000000000000081526004016125bd90613e4b565b60405180910390fd5b816001600083815260200190815260200160002060006101000a81548173ffffffffffffffffffffffffffffffffffffffff021916908373ffffffffffffffffffffffffffffffffffffffff16021790555061265f600360008473ffffffffffffffffffffffffffffffffffffffff1673ffffffffffffffffffffffffffffffffffffffff168152602001908152602001600020612d99565b808273ffffffffffffffffffffffffffffffffffffffff16600073ffffffffffffffffffffffffffffffffffffffff167fddf252ad1be2c89b69c2b068fc378daa952ba7f163c4a11628f55a4df523b3ef60405160405180910390a45050565b600560008373ffffffffffffffffffffffffffffffffffffffff1673ffffffffffffffffffffffffffffffffffffffff168152602001908152602001600020805490506006600083815260200190815260200160002081905550600560008373ffffffffffffffffffffffffffffffffffffffff1673ffffffffffffffffffffffffffffffffffffffff1681526020019081526020016000208190806001815401808255809150509060018203906000526020600020016000909192909190915055505050565b6007805490506008600083815260200190815260200160002081905550600781908060018154018082558091505090600182039060005260206000200160009091929091909150555050565b8273ffffffffffffffffffffffffffffffffffffffff166127f282611549565b73ffffffffffffffffffffffffffffffffffffffff1614612848576040517f08c379a000000000000000000000000000000000000000000000000000000000815260040161283f90613f4b565b60405180910390fd5b600073ffffffffffffffffffffffffffffffffffffffff168273ffffffffffffffffffffffffffffffffffffffff1614156128b8576040517f08c379a00000000000000000000000000000000000000000000000000000000081526004016128af90613e6b565b60405180910390fd5b6128c181612daf565b612908600360008573ffffffffffffffffffffffffffffffffffffffff1673ffffffffffffffffffffffffffffffffffffffff168152602001908152602001600020612e6d565b61294f600360008473ffffffffffffffffffffffffffffffffffffffff1673ffffffffffffffffffffffffffffffffffffffff168152602001908152602001600020612d99565b816001600083815260200190815260200160002060006101000a81548173ffffffffffffffffffffffffffffffffffffffff021916908373ffffffffffffffffffffffffffffffffffffffff160217905550808273ffffffffffffffffffffffffffffffffffffffff168473ffffffffffffffffffffffffffffffffffffffff167fddf252ad1be2c89b69c2b068fc378daa952ba7f163c4a11628f55a4df523b3ef60405160405180910390a4505050565b6000612a596001600560008673ffffffffffffffffffffffffffffffffffffffff1673ffffffffffffffffffffffffffffffffffffffff16815260200190815260200160002080549050612e9090919063ffffffff16565b9050600060066000848152602001908152602001600020549050818114612b46576000600560008673ffffffffffffffffffffffffffffffffffffffff1673ffffffffffffffffffffffffffffffffffffffff1681526020019081526020016000208381548110612ac657fe5b9060005260206000200154905080600560008773ffffffffffffffffffffffffffffffffffffffff1673ffffffffffffffffffffffffffffffffffffffff1681526020019081526020016000208381548110612b1e57fe5b9060005260206000200181905550816006600083815260200190815260200160002081905550505b600560008573ffffffffffffffffffffffffffffffffffffffff1673ffffffffffffffffffffffffffffffffffffffff168152602001908152602001600020805480919060019003612b989190613107565b5050505050565b6000612bc08473ffffffffffffffffffffffffffffffffffffffff16612eda565b612bcd5760019050612d91565b600060608573ffffffffffffffffffffffffffffffffffffffff168673ffffffffffffffffffffffffffffffffffffffff1663150b7a02905060e01b612c11612399565b898888604051602401612c279493929190613d37565b604051602081830303815290604052907bffffffffffffffffffffffffffffffffffffffffffffffffffffffff19166020820180517bffffffffffffffffffffffffffffffffffffffffffffffffffffffff8381831617835250505050604051612c919190613ce1565b6000604051808303816000865af19150503d8060008114612cce576040519150601f19603f3d011682016040523d82523d6000602084013e612cd3565b606091505b509150915081612d2b57600081511115612cf05780518082602001fd5b6040517f08c379a0000000000000000000000000000000000000000000000000000000008152600401612d2290613e2b565b60405180910390fd5b600081806020019051612d419190810190613439565b905063150b7a0260e01b7bffffffffffffffffffffffffffffffffffffffffffffffffffffffff1916817bffffffffffffffffffffffffffffffffffffffffffffffffffffffff19161493505050505b949350505050565b6001816000016000828254019250508190555050565b600073ffffffffffffffffffffffffffffffffffffffff166002600083815260200190815260200160002060009054906101000a900473ffffffffffffffffffffffffffffffffffffffff1673ffffffffffffffffffffffffffffffffffffffff1614612e6a5760006002600083815260200190815260200160002060006101000a81548173ffffffffffffffffffffffffffffffffffffffff021916908373ffffffffffffffffffffffffffffffffffffffff1602179055505b50565b612e8560018260000154612e9090919063ffffffff16565b816000018190555050565b6000612ed283836040518060400160405280601e81526020017f536166654d6174683a207375627472616374696f6e206f766572666c6f770000815250612f25565b905092915050565b60008060007fc5d2460186f7233c927e7db2dcc703c0e500b653ca82273b7bfad8045d85a47060001b9050833f9150808214158015612f1c57506000801b8214155b92505050919050565b6000838311158290612f6d576040517f08c379a0000000000000000000000000000000000000000000000000000000008152600401612f649190613de9565b60405180910390fd5b5060008385039050809150509392505050565b828054600181600116156101000203166002900490600052602060002090601f016020900481019282601f10612fb95780548555612ff6565b82800160010185558215612ff657600052602060002091601f016020900482015b82811115612ff5578254825591600101919060010190612fda565b5b5090506130039190613133565b5090565b828054600181600116156101000203166002900490600052602060002090601f016020900481019282601f1061304857805160ff1916838001178555613076565b82800160010185558215613076579182015b8281111561307557825182559160200191906001019061305a565b5b5090506130839190613133565b5090565b828054600181600116156101000203166002900490600052602060002090601f016020900481019282601f106130c857805160ff19168380011785556130f6565b828001600101855582156130f6579182015b828111156130f55782518255916020019190600101906130da565b5b5090506131039190613133565b5090565b81548183558181111561312e5781836000526020600020918201910161312d9190613133565b5b505050565b61315591905b80821115613151576000816000905550600101613139565b5090565b90565b600081359050613167816144e8565b92915050565b60008135905061317c816144ff565b92915050565b60008135905061319181614516565b92915050565b6000815190506131a681614516565b92915050565b600082601f8301126131bd57600080fd5b81356131d06131cb82614313565b6142e6565b915080825260208301602083018583830111156131ec57600080fd5b6131f7838284614495565b50505092915050565b600082601f83011261321157600080fd5b813561322461321f8261433f565b6142e6565b9150808252602083016020830185838301111561324057600080fd5b61324b838284614495565b50505092915050565b6000813590506132638161452d565b92915050565b60006020828403121561327b57600080fd5b600061328984828501613158565b91505092915050565b600080604083850312156132a557600080fd5b60006132b385828601613158565b92505060206132c485828601613158565b9150509250929050565b6000806000606084860312156132e357600080fd5b60006132f186828701613158565b935050602061330286828701613158565b925050604061331386828701613254565b9150509250925092565b6000806000806080858703121561333357600080fd5b600061334187828801613158565b945050602061335287828801613158565b935050604061336387828801613254565b925050606085013567ffffffffffffffff81111561338057600080fd5b61338c878288016131ac565b91505092959194509250565b600080604083850312156133ab57600080fd5b60006133b985828601613158565b92505060206133ca8582860161316d565b9150509250929050565b600080604083850312156133e757600080fd5b60006133f585828601613158565b925050602061340685828601613254565b9150509250929050565b60006020828403121561342257600080fd5b600061343084828501613182565b91505092915050565b60006020828403121561344b57600080fd5b600061345984828501613197565b91505092915050565b600080600080600060a0868803121561347a57600080fd5b600086013567ffffffffffffffff81111561349457600080fd5b6134a088828901613200565b955050602086013567ffffffffffffffff8111156134bd57600080fd5b6134c988828901613200565b94505060406134da88828901613254565b93505060606134eb88828901613158565b925050608086013567ffffffffffffffff81111561350857600080fd5b61351488828901613200565b9150509295509295909350565b60006020828403121561353357600080fd5b600061354184828501613254565b91505092915050565b6135538161445f565b82525050565b613562816143eb565b82525050565b613571816143d9565b82525050565b613580816143fd565b82525050565b600061359182614380565b61359b81856143a1565b93506135ab8185602086016144a4565b6135b4816144d7565b840191505092915050565b60006135ca82614380565b6135d481856143b2565b93506135e48185602086016144a4565b80840191505092915050565b60006135fb82614396565b61360581856143bd565b93506136158185602086016144a4565b61361e816144d7565b840191505092915050565b600061363482614396565b61363e81856143ce565b935061364e8185602086016144a4565b80840191505092915050565b60006136658261438b565b61366f81856143bd565b935061367f8185602086016144a4565b613688816144d7565b840191505092915050565b6000815460018116600081146136b057600181146136d65761371a565b607f60028304166136c181876143bd565b955060ff19831686526020860193505061371a565b600282046136e481876143bd565b95506136ef8561436b565b60005b82811015613711578154818901526001820191506020810190506136f2565b80880195505050505b505092915050565b60008154600181166000811461373f5760018114613764576137a8565b607f600283041661375081876143ce565b955060ff19831686528086019350506137a8565b6002820461377281876143ce565b955061377d8561436b565b60005b8281101561379f57815481890152600182019150602081019050613780565b82880195505050505b505092915050565b60006137bd602b836143bd565b91507f455243373231456e756d657261626c653a206f776e657220696e646578206f7560008301527f74206f6620626f756e64730000000000000000000000000000000000000000006020830152604082019050919050565b60006138236032836143bd565b91507f4552433732313a207472616e7366657220746f206e6f6e20455243373231526560008301527f63656976657220696d706c656d656e74657200000000000000000000000000006020830152604082019050919050565b6000613889601c836143bd565b91507f4552433732313a20746f6b656e20616c7265616479206d696e746564000000006000830152602082019050919050565b60006138c96024836143bd565b91507f4552433732313a207472616e7366657220746f20746865207a65726f2061646460008301527f72657373000000000000000000000000000000000000000000000000000000006020830152604082019050919050565b600061392f6019836143bd565b91507f4552433732313a20617070726f766520746f2063616c6c6572000000000000006000830152602082019050919050565b600061396f602c836143bd565b91507f4552433732313a206f70657261746f7220717565727920666f72206e6f6e657860008301527f697374656e7420746f6b656e00000000000000000000000000000000000000006020830152604082019050919050565b60006139d5602a836143bd565b91507f4552433732313a2062616c616e636520717565727920666f7220746865207a6560008301527f726f2061646472657373000000000000000000000000000000000000000000006020830152604082019050919050565b6000613a3b6029836143bd565b91507f4552433732313a206f776e657220717565727920666f72206e6f6e657869737460008301527f656e7420746f6b656e00000000000000000000000000000000000000000000006020830152604082019050919050565b6000613aa16020836143bd565b91507f4552433732313a206d696e7420746f20746865207a65726f20616464726573736000830152602082019050919050565b6000613ae1602c836143bd565b91507f4552433732313a20617070726f76656420717565727920666f72206e6f6e657860008301527f697374656e7420746f6b656e00000000000000000000000000000000000000006020830152604082019050919050565b6000613b476029836143bd565b91507f4552433732313a207472616e73666572206f6620746f6b656e2074686174206960008301527f73206e6f74206f776e00000000000000000000000000000000000000000000006020830152604082019050919050565b6000613bad602f836143bd565b91507f4552433732314d657461646174613a2055524920717565727920666f72206e6f60008301527f6e6578697374656e7420746f6b656e00000000000000000000000000000000006020830152604082019050919050565b6000613c136031836143bd565b91507f4552433732313a207472616e736665722063616c6c6572206973206e6f74206f60008301527f776e6572206e6f7220617070726f7665640000000000000000000000000000006020830152604082019050919050565b6000613c79602c836143bd565b91507f455243373231456e756d657261626c653a20676c6f62616c20696e646578206f60008301527f7574206f6620626f756e647300000000000000000000000000000000000000006020830152604082019050919050565b613cdb81614455565b82525050565b6000613ced82846135bf565b915081905092915050565b6000613d048285613722565b9150613d108284613629565b91508190509392505050565b6000602082019050613d316000830184613568565b92915050565b6000608082019050613d4c6000830187613559565b613d596020830186613568565b613d666040830185613cd2565b8181036060830152613d788184613586565b905095945050505050565b6000604082019050613d98600083018561354a565b613da56020830184613cd2565b9392505050565b6000602082019050613dc16000830184613577565b92915050565b60006020820190508181036000830152613de1818461365a565b905092915050565b60006020820190508181036000830152613e0381846135f0565b905092915050565b60006020820190508181036000830152613e24816137b0565b9050919050565b60006020820190508181036000830152613e4481613816565b9050919050565b60006020820190508181036000830152613e648161387c565b9050919050565b60006020820190508181036000830152613e84816138bc565b9050919050565b60006020820190508181036000830152613ea481613922565b9050919050565b60006020820190508181036000830152613ec481613962565b9050919050565b60006020820190508181036000830152613ee4816139c8565b9050919050565b60006020820190508181036000830152613f0481613a2e565b9050919050565b60006020820190508181036000830152613f2481613a94565b9050919050565b60006020820190508181036000830152613f4481613ad4565b9050919050565b60006020820190508181036000830152613f6481613b3a565b9050919050565b60006020820190508181036000830152613f8481613ba0565b9050919050565b60006020820190508181036000830152613fa481613c06565b9050919050565b60006020820190508181036000830152613fc481613c6c565b9050919050565b6000602082019050613fe06000830184613cd2565b92915050565b600061016082019050613ffc600083018e613cd2565b818103602083015261400e818d6135f0565b90508181036040830152614022818c6135f0565b9050614031606083018b613cd2565b61403e608083018a61354a565b61404b60a0830189613577565b61405860c083018861354a565b61406560e0830187613577565b614073610100830186613577565b614081610120830185613568565b8181036101408301526140948184613693565b90509c9b505050505050505050505050565b6000610160820190506140bc600083018e613cd2565b81810360208301526140ce818d61365a565b905081810360408301526140e2818c61365a565b90506140f1606083018b613cd2565b6140fe608083018a613559565b61410b60a0830189613577565b61411860c0830188613568565b61412560e0830187613577565b614133610100830186613577565b614141610120830185613568565b818103610140830152614154818461365a565b90509c9b505050505050505050505050565b60006101608201905061417c600083018e613cd2565b818103602083015261418e818d613693565b905081810360408301526141a2818c613693565b90506141b1606083018b613cd2565b6141be608083018a613559565b6141cb60a0830189613577565b6141d860c083018861354a565b6141e560e0830187613577565b6141f3610100830186613577565b614201610120830185613568565b8181036101408301526142148184613693565b90509c9b505050505050505050505050565b60006101608201905061423c600083018e613cd2565b818103602083015261424e818d613693565b90508181036040830152614262818c613693565b9050614271606083018b613cd2565b61427e608083018a613568565b61428b60a0830189613577565b61429860c0830188613568565b6142a560e0830187613577565b6142b3610100830186613577565b6142c1610120830185613568565b8181036101408301526142d48184613693565b90509c9b505050505050505050505050565b6000604051905081810181811067ffffffffffffffff8211171561430957600080fd5b8060405250919050565b600067ffffffffffffffff82111561432a57600080fd5b601f19601f8301169050602081019050919050565b600067ffffffffffffffff82111561435657600080fd5b601f19601f8301169050602081019050919050565b60008190508160005260206000209050919050565b600081519050919050565b600081519050919050565b600081519050919050565b600082825260208201905092915050565b600081905092915050565b600082825260208201905092915050565b600081905092915050565b60006143e482614435565b9050919050565b60006143f682614435565b9050919050565b60008115159050919050565b60007fffffffff0000000000000000000000000000000000000000000000000000000082169050919050565b600073ffffffffffffffffffffffffffffffffffffffff82169050919050565b6000819050919050565b600061446a82614471565b9050919050565b600061447c82614483565b9050919050565b600061448e82614435565b9050919050565b82818337600083830152505050565b60005b838110156144c25780820151818401526020810190506144a7565b838111156144d1576000848401525b50505050565b6000601f19601f8301169050919050565b6144f1816143d9565b81146144fc57600080fd5b50565b614508816143fd565b811461451357600080fd5b50565b61451f81614409565b811461452a57600080fd5b50565b61453681614455565b811461454157600080fd5b5056fea365627a7a7231582098b5acd65a3523eee2f0bb624a8afe624bd53106575ff87a1f32bd2794fdedbf6c6578706572696d656e74616cf564736f6c63430005100040",
  "source": "pragma solidity >=0.5.16 <0.7.0;\npragma experimental ABIEncoderV2;\n\nimport \"../node_modules/openzeppelin-solidity/contracts/token/ERC721/ERC721Full.sol\";\n\n\ncontract Marketplace is ERC721Full {\n    string public name;\n    uint256 public productCount = 0;\n\n    mapping(uint256 => Product) public products;\n    mapping(uint256 => address) private _tokenApprovals;\n    mapping(address => mapping(address => bool)) private _operatorApprovals;\n    mapping(uint256 => string) private _tokenURIs;\n\n    struct Product {\n        uint256 id;\n        string country;\n        string name;\n        uint256 price;\n        address payable owner;\n        bool purchased;\n        address buyer;\n        bool approvedFromOwnerToBuyer;\n        bool sended;\n        address approver;\n        string tokenURI;\n    }\n\n    event ProductCreated(\n        uint256 id,\n        string country,\n        string name,\n        uint256 price,\n        address owner,\n        bool purchased,\n        address buyer,\n        bool approvedFromOwnerToBuyer,\n        bool sended,\n        address approver,\n        string tokenURI\n    );\n\n    event ProductPurchased(\n        uint256 id,\n        string country,\n        string name,\n        uint256 price,\n        address payable owner,\n        bool purchased,\n        address buyer,\n        bool approvedFromOwnerToBuyer,\n        bool sended,\n        address approver,\n        string tokenURI\n    );\n\n    event Approval(\n        address indexed owner,\n        address indexed approved,\n        uint256 indexed tokenId\n    );\n    event Mint(address owner, uint256 id);\n\n    constructor(string memory _name, string memory _symbol)\n        public\n        ERC721Full(_name, _symbol)\n    {\n        name = \"cites\";\n        _symbol = \"CITES\";\n    }\n\n    //\n    function createProduct(\n        string memory _country,\n        string memory _name,\n        uint256 _price,\n        address _approver,\n        string memory _tokenURI\n    ) public {\n        require(bytes(_name).length > 0);\n        require(_price > 0);\n\n        productCount++; //ID\n        _tokenURIs[productCount] = _tokenURI;\n        // _setTokenURI(productCount, _tokenURI);\n        products[productCount] = Product(\n            productCount,\n            _country,\n            _name,\n            _price,\n            msg.sender,\n            false,\n            msg.sender,\n            false,\n            false,\n            _approver,\n            _tokenURIs[productCount]\n        );\n\n        super._mint(msg.sender, productCount); //\n\n        emit Mint(msg.sender, productCount);\n        emit ProductCreated(\n            productCount,\n            _country,\n            _name,\n            _price,\n            msg.sender,\n            false,\n            msg.sender, // = \n            false,\n            false,\n            _approver,\n            _tokenURIs[productCount]\n        );\n    }\n\n    //URI\n    function _setTokenURI(uint256 tokenId, string memory _tokenURI) internal {\n        require(_exists(tokenId));\n        _tokenURIs[tokenId] = _tokenURI;\n    }\n\n    //\n    // function productreturn(address _owner) public view returns (Product memory) {\n    //     return productsOfOwner[_owner];\n    // }\n\n    //\n    function purchaseProduct(uint256 _id) public {\n        Product storage _product = products[_id];\n\n        address payable _seller = _product.owner;\n\n        // require(_product.id > 0 && _product.id <= productCount);\n        // require(!_product.purchased);\n        require(_product.owner != msg.sender);\n\n        _product.country;\n        _product.buyer = msg.sender;\n        _product.purchased = true; //\n        _product.approver;\n        _product.tokenURI;\n        products[_id] = _product; //\n\n        // address(_seller).transfer(msg.value); //\n        emit ProductPurchased(\n            productCount,\n            _product.country,\n            _product.name,\n            _product.price,\n            _seller,\n            true, //purchased\n            msg.sender, //\n            false, //non approved\n            false, //non sended\n            _product.approver,\n            _product.tokenURI\n        );\n    }\n\n    //(  \n    function approve(address _to, uint256 _id) public {\n        // function approve(address _to, uint256 _id) public {\n        Product storage _product = products[_id];\n        address _owner = _product.owner;\n\n        // address owner = ownerOf(_id); //\n\n        require(_product.approver == msg.sender); //\n        // require(_msgSender() == owner || isApprovedForAll(owner, _msgSender()));\n        require(_product.purchased);\n\n        _tokenApprovals[_id] = _to;\n        emit Approval(_owner, _to, _id);\n\n        _product.country;\n        _product.approvedFromOwnerToBuyer = true;\n        _product.approver;\n        _product.tokenURI;\n        products[_id] = _product;\n\n        emit ProductCreated(\n            productCount,\n            _product.country,\n            _product.name,\n            _product.price,\n            _owner,\n            true, //purchased\n            _tokenApprovals[_id], // = \n            true, // approved\n            false, //non sended\n            _product.approver,\n            _product.tokenURI\n        );\n    }\n\n    //CITES  (5/3)\n    // function middlemanApprove(address from, address _to, uint _id) public returns(bool){\n    // }\n\n    //   \n    function sendMoney(uint256 _id) public payable {\n        Product storage _product = products[_id];\n        address payable _seller = _product.owner;\n\n        require(_product.id > 0 && _product.id <= productCount);\n        // require(msg.value >= _product.price);\n        // require(_product.purchased); //\n        require(_product.approvedFromOwnerToBuyer);\n        require(_product.owner != msg.sender);\n        // require(getApproved(_id) == msg.sender); //\n\n        // \n        _product.country;\n        _product.owner = msg.sender;\n        _product.sended = true;\n        _product.approver;\n        _product.tokenURI;\n        products[_id] = _product;\n        address(_seller).transfer(msg.value);\n\n        emit ProductPurchased(\n            productCount,\n            _product.country,\n            _product.name,\n            _product.price,\n            _product.owner,\n            true, //purchased\n            msg.sender, // = \n            true, // approved\n            true, //sended\n            _product.approver,\n            _product.tokenURI\n        );\n    }\n}\n",
  "sourcePath": "/Users/lingchuyongtai/Desktop/CITES/cites0531/contracts/Marketplace.sol",
  "compiler": {
    "name": "solc",
    "version": "0.5.16+commit.9c3226ce.Emscripten.clang"
  },
  "schemaVersion": "3.2.0",
  "updatedAt": "2020-06-11T06:50:47.061Z",
  "networkType": "ethereum",
  "devdoc": {
    "methods": {
      "balanceOf(address)": {
        "details": "Gets the balance of the specified address.",
        "params": {
          "owner": "address to query the balance of"
        },
        "return": "uint256 representing the amount owned by the passed address"
      },
      "baseURI()": {
        "details": "Returns the base URI set via {_setBaseURI}. This will be automatically added as a preffix in {tokenURI} to each token's URI, when they are non-empty.    * _Available since v2.5.0._"
      },
      "getApproved(uint256)": {
        "details": "Gets the approved address for a token ID, or zero if no address set Reverts if the token ID does not exist.",
        "params": {
          "tokenId": "uint256 ID of the token to query the approval of"
        },
        "return": "address currently approved for the given token ID"
      },
      "isApprovedForAll(address,address)": {
        "details": "Tells whether an operator is approved by a given owner.",
        "params": {
          "operator": "operator address which you want to query the approval of",
          "owner": "owner address which you want to query the approval of"
        },
        "return": "bool whether the given operator is approved by the given owner"
      },
      "ownerOf(uint256)": {
        "details": "Gets the owner of the specified token ID.",
        "params": {
          "tokenId": "uint256 ID of the token to query the owner of"
        },
        "return": "address currently marked as the owner of the given token ID"
      },
      "safeTransferFrom(address,address,uint256)": {
        "details": "Safely transfers the ownership of a given token ID to another address If the target address is a contract, it must implement {IERC721Receiver-onERC721Received}, which is called upon a safe transfer, and return the magic value `bytes4(keccak256(\"onERC721Received(address,address,uint256,bytes)\"))`; otherwise, the transfer is reverted. Requires the msg.sender to be the owner, approved, or operator",
        "params": {
          "from": "current owner of the token",
          "to": "address to receive the ownership of the given token ID",
          "tokenId": "uint256 ID of the token to be transferred"
        }
      },
      "safeTransferFrom(address,address,uint256,bytes)": {
        "details": "Safely transfers the ownership of a given token ID to another address If the target address is a contract, it must implement {IERC721Receiver-onERC721Received}, which is called upon a safe transfer, and return the magic value `bytes4(keccak256(\"onERC721Received(address,address,uint256,bytes)\"))`; otherwise, the transfer is reverted. Requires the _msgSender() to be the owner, approved, or operator",
        "params": {
          "_data": "bytes data to send along with a safe transfer check",
          "from": "current owner of the token",
          "to": "address to receive the ownership of the given token ID",
          "tokenId": "uint256 ID of the token to be transferred"
        }
      },
      "setApprovalForAll(address,bool)": {
        "details": "Sets or unsets the approval of a given operator An operator is allowed to transfer all tokens of the sender on their behalf.",
        "params": {
          "approved": "representing the status of the approval to be set",
          "to": "operator address to set the approval"
        }
      },
      "supportsInterface(bytes4)": {
        "details": "See {IERC165-supportsInterface}.     * Time complexity O(1), guaranteed to always use less than 30 000 gas."
      },
      "symbol()": {
        "details": "Gets the token symbol.",
        "return": "string representing the token symbol"
      },
      "tokenByIndex(uint256)": {
        "details": "Gets the token ID at a given index of all the tokens in this contract Reverts if the index is greater or equal to the total number of tokens.",
        "params": {
          "index": "uint256 representing the index to be accessed of the tokens list"
        },
        "return": "uint256 token ID at the given index of the tokens list"
      },
      "tokenOfOwnerByIndex(address,uint256)": {
        "details": "Gets the token ID at a given index of the tokens list of the requested owner.",
        "params": {
          "index": "uint256 representing the index to be accessed of the requested tokens list",
          "owner": "address owning the tokens list to be accessed"
        },
        "return": "uint256 token ID at the given index of the tokens list owned by the requested address"
      },
      "tokenURI(uint256)": {
        "details": "Returns the URI for a given token ID. May return an empty string.     * If the token's URI is non-empty and a base URI was set (via {_setBaseURI}), it will be added to the token ID's URI as a prefix.     * Reverts if the token ID does not exist."
      },
      "totalSupply()": {
        "details": "Gets the total amount of tokens stored by the contract.",
        "return": "uint256 representing the total amount of tokens"
      },
      "transferFrom(address,address,uint256)": {
        "details": "Transfers the ownership of a given token ID to another address. Usage of this method is discouraged, use {safeTransferFrom} whenever possible. Requires the msg.sender to be the owner, approved, or operator.",
        "params": {
          "from": "current owner of the token",
          "to": "address to receive the ownership of the given token ID",
          "tokenId": "uint256 ID of the token to be transferred"
        }
      }
    }
  },
  "userdoc": {
    "methods": {}
  }
}